:100000000C943B010C946C010C946C010C946C01ED
:100010000C946C010C946C010C946C010C946C01AC
:100020000C946C010C946C010C946C010C946C019C
:100030000C946C010C946C010C946C010C946C018C
:100040000C946C010C945F070C946C010C946C0183
:100050000C946C010C946C010C946C010C941507BD
:100060000C946C010C94DF060C94B5060C946C0196
:100070000C946C010C946C010C946C010C946C014C
:100080000C946C010C946C010C946C010C946C013C
:100090000C946C010C946C010C946C010C946C012C
:1000A0000C946C010C946C010C946C010C946C011C
:1000B0000C946C010C946C010C946C010C946C010C
:1000C0000C946C010C946C010C946C010C946C01FC
:1000D0000C946C010C946C010C946C010C946C01EC
:1000E0000C946C010C941E020C9488030C94F10186
:1000F0000C9489060C94E7010C9487020C945E031F
:100100000C9483030C9428060C946C030C94D40276
:100110000C9443030C9462030C944F020C947603EA
:100120000C9449030C947A030C9488080C9484036F
:100130000C9451030C947E030C942D020C944102F8
:100140000C9458030C944D030C9470030C945503B9
:100150000C946803000020002300260029002C00D6
:100160002F00320000010000030106010901000018
:100170002100240027002A002D0030003300010157
:100180000000040107010A010000220025002800E8
:100190002B002E003100340002010000050108018F
:1001A0000B010505050507050808080802020202FB
:1001B0000A0A080804040404010101010101010103
:1001C0000303030303030303040707070C0C0C0CCE
:1001D0000C0C0C0C020202020606060606060606B7
:1001E0000B0B0B0B0B0B0B0B010210202008081044
:1001F0002040102040800201020108040201010297
:10020000040810204080804020100804020180046F
:1002100002018040201008040201080402010102CA
:1002200004081020408001020408102040800000D3
:100230000A0B02090C0D0E08070304010000000060
:1002400000000000000000000000000000000000AE
:10025000000000000000000000001211100000006B
:10026000000000000000000000000000000000008E
:1002700000000000880811241FBECFEFD1E2DEBFCE
:10028000CDBF00E00CBF23E0A2E6B2E001C01D92AA
:10029000AE39B207E1F712E0A0E0B2E0E2EFF0E23F
:1002A00000E00BBF02C007900D92A236B107D9F74C
:1002B00011E0CBE3D1E000E006C021970109802FD7
:1002C000FE010E946810CA33D10780E00807A9F731
:1002D0000E940B0A0C9477100C9400001F93CF938C
:1002E000DF93DA01EB0112E0FE01E61BF70BE817E2
:1002F000F90744F5E991F0EDFE0FFA3048F40E2EBF
:10030000000CFF0BE650FE4FE081EC931196ECCF12
:10031000FFE9FE0FFA3130F40E2E000CFF0BE15511
:10032000FE4FF2CFFFEBFE0FFA3130F40E2E000C31
:10033000FF0BE153FE4FE8CFED3211F41C93E6CFF3
:100340001C92E4CF2F3F320731F0FA01E20FF31F86
:10035000808181608083DF91CF911F9108950F93F9
:100360001F93CF93DF93FA013197481B590BD901A3
:1003700080E2ED01C21BD30BC417D50714F48D9393
:10038000F8CFCA01E817F90774F097FD0AC0DC013D
:10039000A41BB50BA60FB71FCC91D901A80FB91F8D
:1003A000CC930196EFCF0F3F100759F0CF01801B80
:1003B000910B8C0197FD03C0E817F90714F40FEFB8
:1003C0001FEFC801DF91CF911F910F910895809188
:1003D0006C0290916D02019690936D0280936C0275
:1003E0000895AF92BF92CF92DF92EF92FF920F9358
:1003F0001F93CF93DF936C017B018B01040F151FBB
:10040000EB015E01AE18BF08C017D10759F0699122
:10041000D601ED91FC910190F081E02DC601199576
:10042000892B79F7C501DF91CF911F910F91FF9033
:10043000EF90DF90CF90BF90AF900895FC01538D67
:10044000448D252F30E0842F90E0821B930B5417AE
:1004500010F0CF96089501970895FC01918D828D3B
:10046000981761F0A28DAE0FBF2FB11D5D968C91D4
:10047000928D9F5F9F73928F90E008958FEF9FEF13
:100480000895FC01918D828D981731F0828DE80FCF
:10049000F11D858D90E008958FEF9FEF0895FC0189
:1004A000918D228D892F90E0805C9F4F821B910956
:1004B0008F73992708958EE692E00E944F0221E003
:1004C000892B09F420E0822F0895FC01A48DA80F48
:1004D000B92FB11DA35ABF4F2C91848D90E0019686
:1004E0008F739927848FA689B7892C93A089B189A6
:1004F0008C91837080648C93938D848D981306C047
:100500000288F389E02D80818F7D80830895EF92AA
:10051000FF920F931F93CF93DF93EC0181E0888FBD
:100520009B8D8C8D98131AC0E889F989808185FF8D
:1005300015C09FB7F894EE89FF896083E889F9892F
:1005400080818370806480839FBF81E090E0DF9131
:10055000CF911F910F91FF90EF900895F62E0B8D84
:1005600010E00F5F1F4F0F731127E02E8C8D8E113F
:100570000CC00FB607FCFACFE889F989808185FFA6
:10058000F5CFCE010E946502F1CFEB8DEC0FFD2F70
:10059000F11DE35AFF4FF0829FB7F8940B8FEA8961
:1005A000FB8980818062CFCFCF93DF93EC01888D70
:1005B0008823B9F0AA89BB89E889F9898C9185FDDE
:1005C00003C0808186FD0DC00FB607FCF7CF8C916C
:1005D00085FFF2CF808185FFEDCFCE010E946502BD
:1005E000E9CFDF91CF91089580E090E0892B29F049
:1005F0000E945B0281110E94000080E090E0892B44
:1006000049F080E090E0892B29F00E9400008111E0
:100610000E94000080E090E0892B49F080E090E0AB
:10062000892B29F00E94000081110E94000080E0C7
:1006300090E0892B49F080E090E0892B29F00E941E
:10064000000081110C94000008958150823108F05F
:100650005AC0E82FF0E08827EF5CFC4F8F4F0C94D6
:10066000681051035503430349034D0383035803A3
:100670005E03620368036C03700376037A038303EB
:100680007E0384038803809180008F7780938000AD
:100690000895809180008F7DF9CF80918000877FC1
:1006A000F5CF84B58F7784BD089584B58F7DFBCF5A
:1006B0008091B0008F778093B00008958091B00052
:1006C0008F7DF9CF809190008F778093900008956F
:1006D000809190008F7DF9CF80919000877FF5CF3A
:1006E0008091A0008F778093A00008958091A00052
:1006F0008F7DF9CF8091A000877FF5CF8091200179
:100700008F77809320010895809120018F7DF9CF0C
:1007100080912001877FF5CF1F93CF93DF93282F00
:1007200030E0F901E25DFD4F8491F901E851FE4F9F
:10073000D491F901EE55FE4FC491CC23A9F0162FA8
:1007400081110E942503EC2FF0E0EE0FFF1FE85708
:10075000FE4FA591B4918FB7F894EC91111108C098
:10076000D095DE23DC938FBFDF91CF911F91089549
:10077000DE2BF8CFFF920F931F93CF93DF93082FB9
:10078000162FF42EC22FD8E06C2FF11015C0617017
:10079000802F0E948C03C69561E0812F0E948C03FC
:1007A00060E0812F0E948C03D15071F7DF91CF91CF
:1007B0001F910F91FF900895661F6627661F802F77
:1007C0000E948C03CC0FE8CF0F931F93CF9360E070
:1007D000809149030E948C03C0914F0381E0C82798
:1007E000C19510E000E080915203909153030817E7
:1007F00019075CF42C2F41E060914B0380914D036D
:100800000E94BA030F5F1F4FEECF61E08091490352
:10081000CF911F910F910C948C03CF93DF93C9E478
:10082000D3E060E088810E948C0320E041E06A818F
:100830008C810E94BA0320E041E06A818C810E9491
:10084000BA0361E08881DF91CF910C948C03CF9340
:10085000DF9360E0809149030E948C03C0915203B2
:10086000D0915303C75BDC4F2197CE01895493404D
:1008700097FD09C02DA940E060914B0380914D0385
:100880000E94BA03F1CF61E080914903DF91CF91DB
:100890000C948C03CF93DF9390E0FC01E851FE4F62
:1008A00024918E559E4FFC0184918823C9F090E0DD
:1008B000880F991FFC01E259FE4FA591B491FC01EC
:1008C000E857FE4FC591D49161110DC09FB7F894C0
:1008D0008C91209582238C938881282328839FBF25
:1008E000DF91CF910895623051F49FB7F8943C9115
:1008F000822F809583238C93E8812E2BEFCF8FB7A7
:10090000F894EC912E2B2C938FBFEACF3FB7F8943D
:100910008091680290916902A0916A02B0916B0285
:1009200026B5A89B05C02F3F19F00196A11DB11D4A
:100930003FBFBA2FA92F982F8827BC01CD01620F86
:10094000711D811D911D42E0660F771F881F991F41
:100950004A95D1F708958F929F92AF92BF92CF920E
:10096000DF92EF92FF924B015C010E9486046B01C3
:100970007C010E9486046C197D098E099F09683EDE
:10098000734081059105A8F321E0821A9108A1081E
:10099000B10888EEC80E83E0D81EE11CF11C81145A
:1009A0009104A104B10429F7FF90EF90DF90CF905C
:1009B000BF90AF909F908F900895CF93DF93C9E43D
:1009C000D3E02091520330915303CE0189549340D8
:1009D0008217930784F560E0809149030E948C039D
:1009E0008091510381111DC02DA540E060914B0302
:1009F00080914D030E94BA032DA940E060914B0302
:100A000080914D030E94BA0361E0809149030E94E6
:100A10008C0361E070E080E090E00E94AB042196DE
:100A2000D0CF2DA940E060914B0380914D030E94EF
:100A3000BA032DA5E2CFDF91CF9108952FB7F89497
:100A400060916402709165028091660290916702E4
:100A50002FBF08950F931F93CF93DF93EC012B814A
:100A600030E0F901E25DFD4F8491F901E851FE4F5C
:100A70000491F901EE55FE4F14911123F1F081110B
:100A80000E942503E12FF0E0EE0FFF1FEC5AFE4F0E
:100A9000A591B491EC910E2331E020E009F430E00F
:100AA000832F922F2A81223010F421E08227817037
:100AB000DF91CF911F910F91089590E080E0F2CFE8
:100AC0000F931F93CF93DF93EC018881998181303D
:100AD000910581F130F0029709F474C019821882EF
:100AE00024C08C859D85892B89F00E941E050A896A
:100AF0001B892C893D89601B710B820B930B683E0F
:100B000073408105910510F01D861C86CE010E9460
:100B10002A05882351F00E941E056E877F87888BE7
:100B2000998B81E090E099838883DF91CF911F9129
:100B30000F9108950E941E050E851F852889398909
:100B4000AB01BC01401B510B620B730B8E819F816B
:100B5000B0E0A0E0481759076A077B0730F3CE01E1
:100B60000E942A05882309F4B9CF1B861A868E8D28
:100B70008E7F86608E8F8C859D85892B31F40E94B7
:100B80001E056A8B7B8B8C8B9D8B88859985019646
:100B9000998788878C859D8501969D878C87EE89AE
:100BA000FF89309711F0CE0119958C859D850297AC
:100BB00030F0EC8DFD8D309711F0CE01199582E06B
:100BC00090E0B1CFCE010E942A058823C9F10E948E
:100BD0001E050E851F8528893989AB01BC01401B84
:100BE000510B620B730B8C819D81B0E0A0E0481724
:100BF00059076A077B0708F498CF0E941E050E85E7
:100C00001F8528893989DC01CB01801B910BA20B40
:100C1000B30B2A853B85820F931F9B878A870E948F
:100C20001E056E877F87888B998BE88DF98D3097AD
:100C300011F0CE0119958E8D8B7F81608E8F75CFCF
:100C4000EA8DFB8D309709F449CFCE01199546CF37
:100C500080916202882339F061E08CE00E948C036D
:100C600010926202089560E08CE00E948C0381E0A3
:100C70008093620208958F929F92AF92BF920F93DA
:100C80001F93CF93DF93CDB7DEB7A1970FB6F8943C
:100C9000DEBF0FBECDBF19A2423008F44AE08E017C
:100CA0000F5D1F4F842E912CB12CA12CA501940116
:100CB0000E942710E62FB901CA01EA3044F5E05D31
:100CC000D801EE938D01232B242B252B79F790E06F
:100CD00080E0109769F0FD0101900020E9F731975D
:100CE000AF014A1B5B0BBD018EE692E00E94F10151
:100CF000A1960FB6F894DEBF0FBECDBFDF91CF91A6
:100D00001F910F91BF90AF909F908F900895E95CD5
:100D1000D7CFCF92DF92EF92FF92C0906C02D0902B
:100D20006D020D2C000CEE08FF084AE0C701B60169
:100D3000F7FE0DC06DE28EE692E00E948702662704
:100D40007727CB016C197D098E099F094AE00E9423
:100D50003B0642E050E06EE572E08EE692E0FF90E6
:100D6000EF90DF90CF900C94F1011F920F920FB68D
:100D70000F9211240BB60F922F933F934F935F93D3
:100D80006F937F938F939F93AF93BF93EF93FF9353
:100D90008EE692E00E946502FF91EF91BF91AF91C4
:100DA0009F918F917F916F915F914F913F912F9183
:100DB0000F900BBE0F900FBE0F901F9018951F92B3
:100DC0000F920FB60F9211240BB60F922F938F93A1
:100DD0009F93EF93FF93E0917E02F0917F028081D9
:100DE000E0918402F091850282FD1DC09081809186
:100DF00087028F5F8F7320918802821741F0E09104
:100E00008702F0E0E259FD4F958F80938702FF91B2
:100E1000EF919F918F912F910F900BBE0F900FBE6E
:100E20000F901F9018958081F2CF1F920F920FB6EE
:100E30000F9211242F933F938F939F93AF93BF9360
:100E40008091640290916502A0916602B091670260
:100E50003091630223E0230F2D3758F50196A11D31
:100E6000B11D209363028093640290936502A09366
:100E70006602B09367028091680290916902A09126
:100E80006A02B0916B020196A11DB11D80936802A8
:100E900090936902A0936A02B0936B02BF91AF91E5
:100EA0009F918F913F912F910F900FBE0F901F90A8
:100EB000189526E8230F0296A11DB11DD2CF1F92CF
:100EC0000F920FB60F9211240BB60F92CF92DF92B2
:100ED000EF92FF922F933F934F935F936F937F9384
:100EE0008F939F93AF93BF93EF93FF93C090920321
:100EF000D0909303E0909403F09095038091870342
:100F0000813009F05DC0C114D104E104F10409F499
:100F1000D3C080918603882309F47BC0E0919A03B3
:100F2000F0919B03309741F080919C0390919D0339
:100F3000009709F45CC01995F89480918703F091AB
:100F40008E03E0918F0330919003209191034091A3
:100F50008A0350918B0360918C0370918D038230D2
:100F600009F447C08F2F9E2FA32FB22F009721E0A7
:100F7000A207B10520F08FEF9FEFA0E0B0E0481B83
:100F8000590B6A0B7B0B40938E0350938F03609336
:100F90009003709391031092860378941C141D049F
:100FA0001E041F046CF481E0C81AD108E108F1089E
:100FB000C0929203D0929303E0929403F09295032F
:100FC000FF91EF91BF91AF919F918F917F916F9121
:100FD0005F914F913F912F91FF90EF90DF90CF90D5
:100FE0000F900BBE0F900FBE0F901F901895199584
:100FF000A3CF8F2F9E2FA32FB22F8F3F9105A10537
:10100000B10509F008F4BBCF8FEF90E0A0E0B0E0AD
:10101000B6CFF8942091870380918E0390918F032F
:10102000A0919003B0919103AC01BD012230B1F1C8
:10103000009721E0A207B10520F04FEF5FEF60E0DD
:1010400070E0841B950BA60BB70B80938E039093D7
:101050008F03A0939003B093910380918E0390919E
:101060008F03A0919003B0919103892B8A2B8B2B36
:1010700001F580918A0390918B03A0918C03B0912C
:101080008D0380938E0390938F03A0939003B0936E
:10109000910381E080938603789492CF8F3F9105EE
:1010A000A105B10571F268F24FEF50E060E070E029
:1010B000C8CF10928603F0CFF894809187038330D5
:1010C000D9F054F4813091F0823031F78091700082
:1010D0008D7F80937000E0CF8430A1F08530E1F601
:1010E000809173008D7F80937300D6CF80916F00C5
:1010F0008D7F80936F00D0CF809171008D7F809322
:101100007100CACF809172008D7F80937200C4CF2E
:10111000DF92EF92FF920F931F93CF93DF9300D054
:101120001F92CDB7DEB7109271021092700288EE56
:1011300093E0A0E0B0E08093720290937302A093DA
:101140007402B093750288E392E090936F028093EB
:101150006E0285EC90E090937B0280937A0284EC9F
:1011600090E090937D0280937C0280EC90E09093DD
:101170007F0280937E0281EC90E0909381028093C5
:10118000800282EC90E0909383028093820286EC4E
:1011900090E09093850280938402109287021092CF
:1011A00088021092890210928A0211E0109387033C
:1011B000109296031092970310929803109299033D
:1011C00010929B0310929A0310929D0310929C031D
:1011D0001C821B8284E090E09A83898390934A0367
:1011E0008093490387E090E090934C0380934B03F6
:1011F00088E090E090934E0380934D0361E084E09B
:101200000E944A0461E080914B030E944A0461E01D
:1012100080914D030E944A0410924F031093500393
:1012200010935103EEE4F2E026E733E081919191CF
:101230008830910508F0DEC08A5B9D4FDC018C91FF
:10124000D9018D939D01B2E0EE35FB0779F710923D
:101250005303109252031092550310925403DE016F
:101260001196E6E5F3E090E080E030E020E08C01CC
:101270004D915D91141615060CF0C4C0B901640FB0
:10128000751F0196693071050CF4B6C03093530395
:1012900020935203009354031093550348E050E009
:1012A0006FEF70E08EE793E00E9470100E940D04D3
:1012B00010922B0310922A0362E088E30E944A04F2
:1012C00010922B0310922A031092380310923903C4
:1012D00010923A0310923B0310923C0310923D038C
:1012E00010923E0310923F0388E380932D03DD2488
:1012F000D394D0922C0388E8E82E83E1F82EF09264
:101300002F03E0922E0304E110E0109331030093C9
:10131000300310923303109232031092350310926F
:101320003403109237031092360310924103109247
:10133000400310924303109242031092450310920F
:1013400044031092470310924603109248031092F0
:101350000C0310920B0362E089E30E944A0410928E
:101360000C0310920B031092190310921A0310929F
:101370001B0310921C0310921D0310921E03109267
:101380001F031092200389E380930E03D0920D0374
:10139000F0921003E0920F031093120300931103D5
:1013A0001092140310921303109216031092150357
:1013B0001092180310921703109222031092210327
:1013C00010922403109223031092260310922503F7
:1013D0001092280310922703109229030F900F9068
:1013E0000F900F90DF91CF911F910F91FF90EF9091
:1013F000DF90089580E024CF318B208B419351936F
:101400009B0135CF309353032093520390935503A0
:101410008093540343CFCF93DF9300D000D0CDB758
:10142000DEB7789484B5826084BD84B5816084BD64
:1014300085B5826085BD85B5816085BD80916E0072
:10144000816080936E0010928100809181008260A3
:1014500080938100809181008160809381008091E0
:1014600080008160809380008091B10084608093CF
:10147000B1008091B00081608093B00080919100B4
:1014800082608093910080919100816080939100AF
:10149000809190008160809390008091A100826093
:1014A0008093A1008091A10081608093A100809130
:1014B000A00081608093A0008091210182608093D0
:1014C000210180912101816080932101809120017F
:1014D00081608093200180917A00846080937A00FB
:1014E00080917A00826080937A0080917A00816096
:1014F00080937A0080917A00806880937A001092BD
:10150000C100E0917E02F0917F0282E08083E09151
:101510007A02F0917B021082E0917C02F0917D02D0
:101520008FEC808310928602E0918202F091830218
:1015300086E08083E0918002F09181028081806169
:101540008083E0918002F0918102808188608083B5
:10155000E0918002F0918102808180688083E09137
:101560008002F091810280818F7D808361E08DE037
:101570000E944A0461E08CE00E944A0461E08DE030
:101580000E948C03CDB6DEB682E38C8381E38B832D
:1015900084E38A838DE28983E0905603F0905703B9
:1015A0002DB73EB72E193F090FB6F8943EBF0FBEB8
:1015B0002DBF8DB79EB701965C0102E010E09C0143
:1015C000A701BE016F5F7F4F84E090E00E94AF01F2
:1015D000EDB7FEB7EE19FF090FB6F894FEBF0FBEC8
:1015E000EDBF0DB71EB70F5F1F4F9C01A801B501DE
:1015F000C7010E946E0190914F03E0916603F09144
:101600006703E258FC4FD8019D01201B310B2E15BA
:101610003F0534F48D91911101C080958193F4CFF1
:101620000FB6F894DEBE0FBECDBE80915003882366
:1016300009F46DC00E941E0520915203309153039E
:101640008901330F220B330B6B017C01C01AD10AC5
:10165000E20AF30AF0EDCF0EF7E0DF1EE11CF11C09
:101660000E941E05C616D706E806F90618F00E9465
:10167000DD04F6CF0E940D0488E296E090934103CA
:101680008093400387EE91E090932203809321039F
:1016900080918703F894833009F477C00CF042C03E
:1016A000813009F454C0823009F460C0809387030C
:1016B00078948091870318160CF00EC14FEF5FEFFE
:1016C000BA014093920350939303609394037093F1
:1016D0009503823009F477C080E098E4A8EEB1E089
:1016E00080938A0390938B03A0938C03B0938D0314
:1016F00080938E0390938F03A0939003B0939103F4
:1017000081E090E090938903809388039CC00E94BD
:10171000270460ED77E080E090E00E94AB040E9437
:10172000E403AACF843009F43FC0853009F0BECF6E
:1017300010922001109221019091210198609093C4
:10174000210190912101916090932101AFCF1092DE
:1017500080001092810090918100986090938100A8
:1017600090918100916090938100A0CF1092B00081
:101770001092B1009091B00092609093B00090915F
:10178000B10091609093B10091CF109290001092AF
:1017900091009091910098609093910090919100A8
:1017A00091609093910082CF1092A0001092A100BE
:1017B0009091A10098609093A1009091A1009160F8
:1017C0009093A10073CF92E0E92E92E0F92E01E010
:1017D00010E0F701619171917F0190E080E00E943B
:1017E0001E0E20E030E040E05FE30E945B0E9B01B4
:1017F000AC0160E074E284E79BE40E94860F20E085
:1018000030E040E85FE30E94190F0E94F80F611575
:10181000F0EC7F07FFE38F07910508F089C0609324
:101820008A0370938B0380938C0390938D03609352
:101830008E0370938F038093900390939103109382
:10184000890300938803F89480E090E0A0E0BFE370
:101850008093960390939703A0939803B093990372
:1018600089E896E090939B0380939A0310929D03DE
:1018700010929C031092860320918703223009F076
:1018800070C08091B100887F90918803892B8093EC
:10189000B10080918E0390918F03A0919003B0913D
:1018A0009103233009F4F2C00CF088C0213009F410
:1018B000ACC0223009F4CAC080918E0390918F038E
:1018C000A0919003B0919103892B8A2B8B2B19F453
:1018D00081E08093860378948AE0282E312C412C75
:1018E000512C60E08DE00E948C038AE293E00E941C
:1018F00060058BE093E00E94600580906C02909000
:101900006D02092C000CAA08BB086DB67EB6A501B5
:101910009401F12CE12CC70101967C0157FFF8C01E
:1019200050954095309521953F4F4F4F5F4FF3CFE6
:101930000F5F1F4F0830110509F04BCF60938A03EA
:1019400070938B0380938C0390938D0360938E032D
:1019500070938F03809390039093910387E090E0BE
:10196000D1CE213049F480918100887F9091880305
:10197000892B809381008DCF233049F48091910091
:10198000887F90918803892B8093910082CF2430A7
:1019900049F48091A100887F90918803892B8093DE
:1019A000A10077CF253009F074CF80912101887F85
:1019B00090918803892B809321016BCF243009F407
:1019C00086C0253009F078CFAC01BD010097F1E069
:1019D000AF07B10520F04FEF5FEF60E070E050938C
:1019E000290140932801841B950BA60BB70B80930C
:1019F0008E0390938F03A0939003B09391038091F3
:101A0000730082608093730057CFAC01BD010097D3
:101A100021E0A207B10520F04FEF5FEF60E070E03A
:101A20005093890040938800841B950BA60BB70B3D
:101A300080938E0390938F03A0939003B0939103B0
:101A400080916F00826080936F0036CFAC01BD0142
:101A50008F3F9105A105B10529F020F04FEF50E02F
:101A600060E070E04093B300841B950BA60BB70BAE
:101A700080938E0390938F03A0939003B093910370
:101A80008091700082608093700016CFAC01BD0120
:101A9000009731E0A307B10520F04FEF5FEF60E062
:101AA00070E05093990040939800841B950BA60B0F
:101AB000B70B80938E0390938F03A0939003B09302
:101AC000910380917100826080937100F5CEAC012A
:101AD000BD010097E1E0AE07B10520F04FEF5FEFE9
:101AE00060E070E05093A9004093A800841B950B20
:101AF000A60BB70B80938E0390938F03A093900354
:101B0000B093910380917200826080937200D4CE72
:101B10002A303105410551053CF0CA01B901A20145
:101B200091010E944910F7CEEDB7FEB7E81BF90B03
:101B30000FB6F894FEBF0FBEEDBF2DB73EB72F5FB7
:101B40003F4F3E832D8310E0B7FE09C0B094A094B0
:101B500090948094811C911CA11CB11C11E0CD803B
:101B6000DE80CE0CDF1CC501B401A20191010E94F0
:101B70004910605DF60162936F0149015A012D81A0
:101B80003E812E173F0779F7112321F02DE2ED81D9
:101B9000FE812083C0905603D09057038DB79EB727
:101BA0008C199D090FB6F8949EBF0FBE8DBFEDB77F
:101BB000FEB731964F010FEF1FEF9F01A6016D8118
:101BC0007E81C7010E94AF012DB73EB72C193D0998
:101BD0000FB6F8943EBF0FBE2DBF8DB79EB70196CE
:101BE0007C012FEF3FEFAC01B401C6010E946E01F2
:101BF00090914F03E0916603F0916703E258FC4F28
:101C0000D7019D012E193F092C153D0534F48D9106
:101C1000911101C080958193F4CF0FB6F8947EBEE8
:101C20000FBE6DBE80915003882329F00E94DD0411
:101C30000E94F40256CE0E942704FACFE89409C00D
:101C400097FB3EF490958095709561957F4F8F4FEF
:101C50009F4F9923A9F0F92F96E9BB279395F69505
:101C6000879577956795B795F111F8CFFAF4BB0F83
:101C700011F460FF1BC06F5F7F4F8F4F9F4F16C0E7
:101C8000882311F096E911C0772321F09EE8872F71
:101C9000762F05C0662371F096E8862F70E060E02D
:101CA0002AF09A95660F771F881FDAF7880F9695A6
:101CB000879597F908950E946E0E0C94DF0E0E948E
:101CC000D10E38F00E94D80E20F0952311F00C941C
:101CD000C80E0C94CE0E11240C94130F0E94F00E1B
:101CE00070F3959FC1F3950F50E0551F629FF0016F
:101CF000729FBB27F00DB11D639FAA27F00DB11D88
:101D0000AA1F649F6627B00DA11D661F829F222710
:101D1000B00DA11D621F739FB00DA11D621F839F97
:101D2000A00D611D221F749F3327A00D611D231F6D
:101D3000849F600D211D822F762F6A2F11249F57BB
:101D400050409AF0F1F088234AF0EE0FFF1FBB1FBE
:101D5000661F771F881F91505040A9F79E3F51057D
:101D600080F00C94C80E0C94130F5F3FE4F3983E80
:101D7000D4F3869577956795B795F795E7959F5F27
:101D8000C1F7FE2B880F911D9695879597F90895B9
:101D900097F99F6780E870E060E008959FEF80EC1E
:101DA000089500240A9416161706180609060895C1
:101DB00000240A9412161306140605060895092E27
:101DC0000394000C11F4882352F0BB0F40F4BF2B96
:101DD00011F460FF04C06F5F7F4F8F4F9F4F0895D6
:101DE00057FD9058440F551F59F05F3F71F04795CC
:101DF000880F97FB991F61F09F3F79F087950895B1
:101E0000121613061406551FF2CF4695F1DF08C0CF
:101E1000161617061806991FF1CF869571056105EC
:101E200008940895E894BB2766277727CB0197F994
:101E300008955058BB27AA270E94310F0C94DF0E3B
:101E40000E94D10E38F00E94D80E20F039F49F3F46
:101E500019F426F40C94CE0E0EF4E095E7FB0C94E6
:101E6000C80EE92F0E94F00E58F3BA1762077307E5
:101E70008407950720F079F4A6F50C94120F0EF460
:101E8000E0950B2EBA2FA02D0B01B90190010C018A
:101E9000CA01A0011124FF27591B99F0593F50F4A2
:101EA000503E68F11A16F040A22F232F342F4427FA
:101EB000585FF3CF469537952795A795F0405395F2
:101EC000C9F77EF41F16BA0B620B730B840BBAF0C2
:101ED0009150A1F0FF0FBB1F661F771F881FC2F72D
:101EE0000EC0BA0F621F731F841F48F48795779541
:101EF0006795B795F7959E3F08F0B0CF9395880FFB
:101F000008F09927EE0F9795879508950E949A0FEC
:101F10000C94DF0E0E94D80E58F00E94D10E40F0B3
:101F200029F45F3F29F00C94C80E51110C94130F43
:101F30000C94CE0E0E94F00E68F39923B1F3552352
:101F400091F3951B550BBB27AA27621773078407CC
:101F500038F09F5F5F4F220F331F441FAA1FA9F362
:101F600035D00E2E3AF0E0E832D091505040E69550
:101F7000001CCAF72BD0FE2F29D0660F771F881FB1
:101F8000BB1F261737074807AB07B0E809F0BB0BA4
:101F9000802DBF01FF2793585F4F3AF09E3F5105B8
:101FA00078F00C94C80E0C94130F5F3FE4F3983E46
:101FB000D4F3869577956795B795F7959F5FC9F7A1
:101FC000880F911D9695879597F90895E1E0660F22
:101FD000771F881FBB1F621773078407BA0720F09B
:101FE000621B730B840BBA0BEE1F88F7E095089504
:101FF0000E94F80E88F09F5798F0B92F9927B75193
:10200000B0F0E1F0660F771F881F991F1AF0BA959C
:10201000C9F714C0B13091F00E94120FB1E00895D9
:102020000C94120F672F782F8827B85F39F0B93FCB
:10203000CCF3869577956795B395D9F73EF490954F
:102040008095709561957F4F8F4F9F4F0895A1E2C6
:102050001A2EAA1BBB1BFD010DC0AA1FBB1FEE1F22
:10206000FF1FA217B307E407F50720F0A21BB30B6D
:10207000E40BF50B661F771F881F991F1A9469F7E9
:1020800060957095809590959B01AC01BD01CF0145
:102090000895052E97FB1EF400940E94601057FDD2
:1020A00007D00E94271007FC03D04EF40C94601058
:1020B00050954095309521953F4F4F4F5F4F089574
:1020C00090958095709561957F4F8F4F9F4F0895A4
:1020D000EE0FFF1F881F8BBF0790F691E02D19941C
:1020E000DC0101C06D9341505040E0F70895F89431
:0220F000FFCF20
:1020F20001000100080020004000800000010004EF
:10210200EE3E9C7A9E8EBC6E0C78AE1CEC2A3ACEC9
:10211200E68CB61E387C7E6C76DAFC60DAF266B645
:10212200BEE0FEE6000000008702F1011E02D402BA
:102132004F022D02410280402010080402010000DB
:1021420001000200030004000500060007000D0A5A
:0221520000008B
:00000001FF
