:100000000C9428010C9459010C9459010C94590139
:100010000C9459010C9459010C9459010C945901F8
:100020000C9459010C9459010C9459010C945901E8
:100030000C9459010C9459010C9459010C945901D8
:100040000C9459010C9459010C9459010C945901C8
:100050000C9459010C9459010C9459010C94D0053D
:100060000C9459010C949A050C9470050C94590148
:100070000C9459010C9459010C9459010C94590198
:100080000C9459010C9459010C9459010C94590188
:100090000C9459010C9459010C9459010C94590178
:1000A0000C9459010C9459010C9459010C94590168
:1000B0000C9459010C9459010C9459010C94590158
:1000C0000C9459010C9459010C9459010C94590148
:1000D0000C9459010C9459010C9459010C94590138
:1000E0000C9459010C941A060C9414020C945E039F
:1000F0000C946C030C9454030C942D030C94740313
:100100000C94C0010C944E030C945A020C9470038E
:100110000C9428030C94B1010C947A030C942202E1
:100120000C9447030C94A7020C9458030C94660398
:100130000C9484010C9462030C943F030C944B03C5
:100140000C947E030C94430300002100240027003C
:100150002A002D00300033000101000004010701D6
:100160000A0100002200250028002B002E0031008B
:10017000340002010000050108010B010505050519
:10018000070508080808020202020A0A080804040F
:10019000040401010101010101010303030303033D
:1001A0000303040707070C0C0C0C0C0C0C0C0202CC
:1001B000020206060606060606060B0B0B0B0B0BC9
:1001C0000B0B010210202008081020401020408056
:1001D000020102010804020101020408102040800B
:1001E0008040201008040201800402018040201099
:1001F00008040201080402010102040810204080E2
:10020000010204081020408000000A0B02090C0DB6
:100210000E080703040100000000000000000000B9
:1002200000000000000000000000000000000000CE
:10023000000000001211100000000000000000008B
:1002400000000000000000000000000000001A068E
:1002500011241FBECFEFD1E2DEBFCDBF00E00CBF47
:1002600022E0A0E4B2E001C01D92A43FB207E1F792
:1002700012E0A0E0B2E0E8E0F6E100E00BBF02C06F
:1002800007900D92A034B107D9F711E0C8E2D1E090
:1002900000E006C021970109802FFE010E94D608C8
:1002A000C732D10780E00807A9F70E94AA060C947C
:1002B000020B0C940000FC018081823081F018F464
:1002C000813031F00895833089F08430B1F00895A1
:1002D00080EA90E09093890080938800089580EAF6
:1002E00090E090939D0080939C00089580EA90E0B8
:1002F0009093A9008093A800089580EA90E09093DD
:100300009900809398000895AF92BF92CF92DF92A8
:10031000EF92FF920F931F93CF93DF936C017B01BA
:100320008B01040F151FEB015E01AE18BF08C0174B
:10033000D10759F06991D601ED91FC910190F081BE
:10034000E02DC6011995892B79F7C501DF91CF9171
:100350001F910F91FF90EF90DF90CF90BF90AF90E3
:100360000895FC01538D448D252F30E0842F90E0BB
:10037000821B930B541710F0CF96089501970895A0
:10038000FC01918D828D981761F0A28DAE0FBF2F69
:10039000B11D5D968C91928D9F5F9F73928F90E0BF
:1003A00008958FEF9FEF08952FB7F8948091490239
:1003B00090914A02A0914B02B0914C022FBF8093C2
:1003C000550290935602A0935702B09358028DE4C1
:1003D00092E00E94C00197FF26C02FB7F894809149
:1003E000490290914A02A0914B02B0914C022FBF5A
:1003F00040915502509156026091570270915802F7
:10040000841B950BA60BB70B4091510250915202E1
:10041000609153027091540284179507A607B7079D
:10042000B0F28FEF9FEF0895FC01918D828D9817A8
:1004300031F0828DE80FF11D858D90E008958FEFEA
:100440009FEF0895FC01918D228D892F90E0805CB3
:100450009F4F821B91098F73992708958DE492E035
:100460000E94220221E0892B09F420E0822F0895C6
:10047000FC01A48DA80FB92FB11DA35ABF4F2C9119
:10048000848D90E001968F739927848FA689B78910
:100490002C93A089B1898C91837080648C93938D07
:1004A000848D981306C00288F389E02D80818F7DAA
:1004B00080830895EF92FF920F931F93CF93DF9362
:1004C000EC0181E0888F9B8D8C8D98131AC0E88990
:1004D000F989808185FF15C09FB7F894EE89FF895F
:1004E0006083E889F98980818370806480839FBFFD
:1004F00081E090E0DF91CF911F910F91FF90EF90FD
:100500000895F62E0B8D10E00F5F1F4F0F7311270C
:10051000E02E8C8D8E110CC00FB607FCFACFE88947
:10052000F989808185FFF5CFCE010E943802F1CF95
:10053000EB8DEC0FFD2FF11DE35AFF4FF0829FB7BB
:10054000F8940B8FEA89FB8980818062CFCFCF93AB
:10055000DF93EC01888D8823B9F0AA89BB89E889EB
:10056000F9898C9185FD03C0808186FD0DC00FB691
:1005700007FCF7CF8C9185FFF2CF808185FFEDCF0F
:10058000CE010E943802E9CFDF91CF91089580E03B
:1005900090E0892B29F00E942E0281110E94000018
:1005A00080E090E0892B49F080E090E0892B29F0F1
:1005B0000E94000081110E94000080E090E0892BE1
:1005C00049F080E090E0892B29F00E940000811121
:1005D0000E94000080E090E0892B49F080E090E0EC
:1005E000892B29F00E94000081110C9400000895CD
:1005F000282F30E0F901E85FFD4F9491F901EE53A7
:10060000FE4F449124583E4FF9012491222309F4CE
:1006100035C0992311F191509231F8F4E92FF0E0AF
:100620008827EA5EFC4F8F4F0C94D60847034B0394
:1006300028033F0343032D034E03540358035E0373
:10064000620366036C0370032D0374037A037E0355
:10065000809180008F7780938000E22FF0E0EE0F92
:10066000FF1FEE59FE4FA591B4918FB7F894EC910E
:10067000611148C040954E234C938FBF08958091DF
:1006800080008F7DE8CF80918000877FE4CF84B5A4
:100690008F7784BDE2CF84B58F7DFBCF8091B00092
:1006A0008F778093B000D9CF8091B0008F7DF9CF44
:1006B000809190008F7780939000CFCF80919000B1
:1006C0008F7DF9CF80919000877FF5CF8091A0003A
:1006D0008F778093A000C1CF8091A0008F7DF9CF4C
:1006E0008091A000877FF5CF809120018F77809344
:1006F0002001B3CF809120018F7DF9CF809120011F
:10070000877FF5CF4E2BB8CFCF93DF9360E08CE09F
:100710000E94F80260E088E00E94F802C7E0D0E0A2
:1007200060E084E00E94F8028091EA0290E00C2EE2
:1007300002C0959587950A94E2F761E080FF60E03A
:1007400088E00E94F80261E084E00E94F8022197AC
:1007500038F761E08CE0DF91CF910C94F802CF93F1
:10076000DF9390E0FC01EE53FE4F249184589E4F9E
:10077000FC0184918823D1F090E0880F991FFC013F
:10078000E85BFE4FA591B491FC01EE59FE4FC59177
:10079000D49161110EC09FB7F8948C91E22FE0952F
:1007A0008E238C932881E223E8839FBFDF91CF9132
:1007B00008958FB7F894EC91E22BEC938FBFF6CFAE
:1007C000863308F0865320917B00982F9870277FFE
:1007D000922B90937B008770806480937C00809143
:1007E0007A00806480937A0080917A0086FDFCCF45
:1007F00080917800909179000895FC018081823089
:1008000069F028F423E092E0813051F008958330BC
:1008100011F126E090E0843019F0089524E091E091
:100820006230E1F0643079F1613009F03FC041E0BD
:1008300050E0BA0101C0660F9A95EAF78091EA028A
:10084000862B01C0440F2A95EAF740954823409330
:10085000EA020C94840327E095E0E2CF41E050E007
:10086000BA0102C0660F771F9A95E2F7CB01809517
:100870009091EA02892301C0440F2A95EAF7842B5C
:100880008093EA02E6CF41E050E0FA0102C0EE0FA9
:10089000FF1F9A95E2F7CF0101C0440F2A95EAF7AE
:1008A000842B80959091EA028923EACF0895FC0178
:1008B00001900020E9F73197AF01481B590BBC01AB
:1008C0008DE492E00C9484018F929F92AF92BF923C
:1008D000CF92DF92EF92FF920F931F93CF93DF930C
:1008E000CDB7DEB7A1970FB6F894DEBF0FBECDBF70
:1008F0006C01990FEE08FF08F7FE47C06DE28DE42A
:1009000092E00E945A028C0122273327A9012C1958
:100910003D094E095F0919A2CE0181967C019AE03A
:10092000892E912CA12CB12CCA01B901A5019401E9
:100930000E94B408605DF70162937F0121153105C3
:100940004105510589F790E080E0309719F0CF011B
:100950000E945704080F191F88E192E00E94570473
:10096000800F911FA1960FB6F894DEBF0FBECDBFCA
:10097000DF91CF911F910F91FF90EF90DF90CF907B
:10098000BF90AF909F908F900895A701960119A2F4
:100990008E010F5D1F4F8AE0C82ED12CE12CF12C67
:1009A000CA01B901A70196010E94B408605DF8016F
:1009B00062938F01211531054105510589F7309763
:1009C00029F0CF010E9457048C01C6CF10E000E04F
:1009D000C3CFFB0144815581FC012481358124175B
:1009E000350778F080819181009759F0FB01608193
:1009F00071816115710529F00E94F40A21E0892BAB
:100A000009F020E0822F08950F931F93CF93DF9377
:100A1000EC0188819981009759F02A813B81261742
:100A2000370730F081E0DF91CF911F910F9108954A
:100A30008B016F5F7F4F0E94030A009759F09983E3
:100A400088831B830A832C813D81232B59F7FC016A
:100A50001082E8CF80E0E7CFFC0180819181009790
:100A600011F00C947A090895EF92FF920F931F935F
:100A7000CF93DF93EC017B01198218821B821A82CB
:100A80001D821C82FB0101900020E9F731978F0144
:100A9000061B170BB8010E940405288139818111BA
:100AA00013C02115310519F0C9010E947A09198274
:100AB00018821D821C821B821A82DF91CF911F91A6
:100AC0000F91FF90EF9008951D830C83B701C9012A
:100AD000DF91CF911F910F91FF90EF900C94ED0A51
:100AE0001F920F920FB60F9211240BB60F922F93F5
:100AF0003F934F935F936F937F938F939F93AF93A6
:100B0000BF93EF93FF938DE492E00E943802FF9130
:100B1000EF91BF91AF919F918F917F916F915F9175
:100B20004F913F912F910F900BBE0F900FBE0F90E2
:100B30001F9018951F920F920FB60F9211240BB6AB
:100B40000F922F938F939F93EF93FF93E0915D020A
:100B5000F0915E028081E0916302F091640282FD77
:100B60001DC09081809166028F5F8F732091670214
:100B7000821741F0E0916602F0E0E35BFD4F958F54
:100B800080936602FF91EF919F918F912F910F902B
:100B90000BBE0F900FBE0F901F9018958081F2CF63
:100BA0001F920F920FB60F9211242F933F938F93A2
:100BB0009F93AF93BF938091490290914A02A09175
:100BC0004B02B0914C023091440223E0230F2D37A9
:100BD00058F50196A11DB11D20934402809349024E
:100BE00090934A02A0934B02B0934C028091400232
:100BF00090914102A0914202B09143020196A11D41
:100C0000B11D8093400290934102A0934202B093A1
:100C10004302BF91AF919F918F913F912F910F9080
:100C20000FBE0F901F90189526E8230F0296A11D66
:100C3000B11DD2CFCF93DF93EDE4F2E013821282A5
:100C400088EE93E0A0E0B0E084839583A683B78329
:100C50008AE092E09183808385EC90E09587848799
:100C600084EC90E09787868780EC90E0918B808B76
:100C700081EC90E0938B828B82EC90E0958B848B5F
:100C800086EC90E0978B868B118E128E138E148ECD
:100C90001092EB02EEEEF2E083E08083D2E0D183AB
:100CA00061E08CE00E94AF0361E087E00E94AF0347
:100CB00061E088E00E94AF0361E084E00E94AF033E
:100CC0001092EA020E94840360E087E00E94F8022A
:100CD0000E948403E0EAF0E0808181688083CAE0BA
:100CE000C093A1001092A9001092A80061E086E0D4
:100CF0000E94AF03ECEEF2E084E08083D18361E0F8
:100D00008CE00E94AF0361E087E00E94AF0361E0E6
:100D100088E00E94AF0361E084E00E94AF0310927C
:100D2000EA020E94840360E087E00E94F8020E94C9
:100D30008403E0E9F0E0808181688083C0939100C2
:100D4000109299001092980061E085E0DF91CF91B8
:100D50000C94AF03CF93DF93CDB7DEB72C970FB6CC
:100D6000F894DEBF0FBECDBF789484B5826084BD99
:100D700084B5816084BD85B5826085BD85B581609F
:100D800085BD80916E00816080936E00109281001D
:100D900080918100826080938100809181008160D8
:100DA0008093810080918000816080938000809199
:100DB000B10084608093B1008091B0008160809325
:100DC000B0008091910082608093910080919100A9
:100DD0008160809391008091900081608093900069
:100DE0008091A10082608093A1008091A100816028
:100DF0008093A1008091A00081608093A0008091E9
:100E00002101826080932101809121018160809382
:100E100021018091200181608093200180917A00DE
:100E2000846080937A0080917A00826080937A0057
:100E300080917A00816080937A0080917A00806846
:100E400080937A001092C100E0915D02F0915E0201
:100E500082E08083E0915902F0915A021082E09181
:100E60005B02F0915C028FEC808310926502E0914E
:100E70006102F091620286E08083E0915F02F0916E
:100E80006002808180618083E0915F02F091600266
:100E9000808188608083E0915F02F09160028081B0
:100EA00080688083E0915F02F091600280818F7D95
:100EB000808360E081E40E94AF0360E082E40E94EE
:100EC000AF038EEE92E00E945B018CEE92E00E94F6
:100ED0005B018DE492E00E942202181619060CF0C4
:100EE0006CC06AE172E0CE0107960E9434050E9450
:100EF000D40197FD1EC08A309105D9F089831A82EA
:100F00000B851C850F5F1F4FB801CE0107960E940D
:100F10000405882361F32F8138858B859C85BE016C
:100F20006F5F7F4F820F931F0E94ED0A1C870B8714
:100F3000DECFCF80D884C114D10439F00B851C8555
:100F400076010115110509F081C06BE172E0CE0157
:100F500001960E943405BE016F5F7F4FCE01079658
:100F60000E94E904182FCE0101960E942C0561E031
:100F70001111B7C062E272E0CE0101960E94340501
:100F8000BE016F5F7F4FCE0107960E94E904182FC4
:100F9000CE0101960E942C05112309F48DC062E058
:100FA0008EEE92E00E94FD0362E08CEE92E00E94E1
:100FB000FD03CE0107960E942C058FB7F89440914F
:100FC000490250914A0260914B0270914C028FBFCE
:100FD0008091450290914602A0914702B09148024B
:100FE0008C599F4FAF4FBF4F84179507A607B70780
:100FF00048F581E40E94E0037C0182E40E94E00362
:101000008C01C7010E9464048EE392E00E945704A1
:1010100088E192E00E945704C8010E9464042FB73F
:10102000F8948091490290914A02A0914B02B091AC
:101030004C022FBF8093450290934602A093470233
:10104000B09348020E94C70244CF750157018FEF49
:10105000A81AB80AF7018081082E000C990B0E948B
:10106000A808892B91F7015011090C0D1D1DF801DD
:101070008081082E000C990B0E94A808892B31F062
:101080000E151F0518F001501109F1CFA8014F5F8F
:101090005F4F4E195F095C874B87CE14DF0420F445
:1010A000B701C6010E94E40AEF81F8858B859C8513
:1010B000E80FF91F108249CF67E272E0CE01019676
:1010C0000E943405BE016F5F7F4FCE0107960E94DC
:1010D000E904182FCE0101960E942C05112339F046
:1010E00064E08EEE92E00E94FD0361E05ECF60E37B
:1010F00072E0CE0101960E943405BE016F5F7F4F02
:10110000CE0107960E94E904182FCE0101960E9495
:101110002C0561E0111116C068E372E0CE01019662
:101120000E943405BE016F5F7F4FCE0107960E947B
:10113000E904182FCE0101960E942C05112309F411
:1011400038CF64E08EEE92E00E94FD0364E02DCF84
:1011500091110C94B108803219F089508550C8F76C
:101160000895992788270895A1E21A2EAA1BBB1B70
:10117000FD010DC0AA1FBB1FEE1FFF1FA217B30763
:10118000E407F50720F0A21BB30BE40BF50B661F79
:10119000771F881F991F1A9469F76095709580953D
:1011A00090959B01AC01BD01CF010895EE0FFF1F8B
:1011B000881F8BBF0790F691E02D19940F931F9312
:1011C000CF93DF938230910510F482E090E0E091BC
:1011D000F202F091F30230E020E0B0E0A0E03097BE
:1011E00099F42115310509F44AC0281B390B243024
:1011F0003105D8F58A819B816115710589F1FB0163
:1012000093838283FE0111C0408151810281138149
:1012100048175907E0F04817590799F4109761F0FB
:1012200012960C93129713961C933296CF01DF916E
:10123000CF911F910F9108950093F2021093F30242
:10124000F4CF2115310551F04217530738F0A901A9
:10125000DB019A01BD01DF01F801C1CFEF01F9CF38
:101260009093F3028093F202CDCFFE01E20FF31FC1
:10127000819391932250310939832883D7CF2091CC
:10128000F0023091F102232B41F4209102023091BF
:1012900003023093F1022093F0022091000230917A
:1012A00001022115310541F42DB73EB740910402EA
:1012B00050910502241B350BE091F002F091F102F0
:1012C000E217F307A0F42E1B3F0B2817390778F01D
:1012D000AC014E5F5F4F2417350748F04E0F5F1F7C
:1012E0005093F1024093F002819391939FCFF0E0ED
:1012F000E0E09CCFCF93DF930097E9F0FC013297B9
:1013000013821282A091F202B091F302ED0130E05B
:1013100020E01097A1F420813181820F931F20914A
:10132000F0023091F1022817390709F061C0F093FB
:10133000F102E093F002DF91CF910895EA01CE1718
:10134000DF07E8F54A815B819E0141155105B1F740
:10135000E901FB83EA8349915991C40FD51FEC172A
:10136000FD0761F4808191810296840F951FE90148
:1013700099838883828193819B838A83F0E0E0E074
:1013800012968D919C9113970097B9F52D913C91F0
:101390001197CD010296820F931F2091F002309198
:1013A000F1022817390739F6309751F51092F302F8
:1013B0001092F202B093F102A093F002BCCFD3835B
:1013C000C28340815181840F951FC817D90761F4EA
:1013D0004E5F5F4F88819981480F591F5183408329
:1013E0008A819B81938382832115310509F0B0CFD7
:1013F000F093F302E093F2029ECFFD01DC01C0CF37
:1014000013821282D7CF4F925F926F927F928F9208
:101410009F92AF92BF92CF92DF92EF92FF920F9383
:101420001F93CF93DF938C01009799F4CB01DF9149
:10143000CF911F910F91FF90EF90DF90CF90BF90D1
:10144000AF909F908F907F906F905F904F900C9493
:10145000DE08FC01E60FF71F9C0122503109E2175C
:10146000F30708F4AEC0D901CD91DC911197C617EE
:10147000D70720F1C530D10578F0CE010497861743
:10148000970750F0C61BD70B2297C193D1936D934A
:101490007C93CF010E947A09C801DF91CF911F91FF
:1014A0000F91FF90EF90DF90CF90BF90AF909F9003
:1014B0008F907F906F905F904F9008955B01AC1A72
:1014C000BD0A4C018C0E9D1EA091F202B091F30258
:1014D000512C412CF12CE12C109731F58091F00228
:1014E0009091F1028815990509F05CC046165706DF
:1014F00008F058C08091000290910102009741F4D9
:101500008DB79EB74091040250910502841B950B44
:10151000E817F90708F055C0F093F102E093F002E4
:10152000F90171836083B8CF8D919C9111971296C8
:101530006C90129713967C901397A815B90559F5DE
:101540006C0142E0C40ED11CCA14DB0420F1AC01D2
:101550004A195B09DA011296159780F0628273824C
:1015600051834083D9016D937C93E114F10471F0B0
:10157000D7011396FC93EE9312978ECF22968C0F81
:101580009D1FF90191838083F301EFCFF093F30264
:10159000E093F20281CF4816590608F42C017D0130
:1015A000D3019ACFCB010E94DE087C01009749F05D
:1015B000AE01B8010E94E40AC8010E947A098701BD
:1015C0006BCF10E000E068CFFB01DC0102C00190AE
:1015D0000D9241505040D8F70895FB01DC01019075
:1015E0000D920020E1F70895FB01DC0141505040CD
:1015F00030F08D910190801919F40020B9F7881B03
:08160000990B0895F894FFCF47
:101608000000F4028000000000005A028401B101C9
:10161800A7022202C00114020D0A006672656E74E8
:101628006500747261730065737175657264610039
:1016380064697265697461007061726172002D007D
:00000001FF
