:020000040000FA
:100000000C943D010C946E010C946E010C946E01E5
:100010000C946E010C946E010C946E010C946E01A4
:100020000C946E010C946E010C946E010C946E0194
:100030000C946E010C946E010C946E010C946E0184
:100040000C946E010C941B060C946E010C946E01C2
:100050000C946E010C946E010C946E010C94D105FD
:100060000C946E010C949B050C9471050C946E011C
:100070000C946E010C946E010C946E010C946E0144
:100080000C946E010C946E010C946E010C946E0134
:100090000C946E010C946E010C946E010C946E0124
:1000A0000C946E010C946E010C946E010C946E0114
:1000B0000C946E010C946E010C946E010C946E0104
:1000C0000C946E010C946E010C946E010C946E01F4
:1000D0000C946E010C946E010C946E010C946E01E4
:1000E0000C946E010C9436030C94F6020C941103DC
:1000F0000C9487020C941F030C9429030C940B039B
:100100000C942D030C9402020C9444070C943B03B2
:100110000C94E0010C943A020C9423030C94A40177
:100120000C94FC020C9490010C9470010C941B0331
:100130000C9431030C94F4010C94D1010C9437030A
:100140000C9415030C9400030C946D030C94820121
:100150000C9408030C9404030000200023002600E4
:1001600029002C002F0032000001000003010601CD
:10017000090100002100240027002A002D00300082
:10018000330001010000040107010A010000220000
:10019000250028002B002E00310034000201000051
:1001A000050108010B0105050505070508080808F4
:1001B000020202020A0A08080404040401010101FF
:1001C00001010101030303030303030304070707FA
:1001D0000C0C0C0C0C0C0C0C02020202060606069F
:1001E000060606060B0B0B0B0B0B0B0B010210206C
:1001F000200808102040102040800201020108045D
:1002000002010102040810204080804020100804F0
:100210000201800402018040201008040201080449
:10022000020101020408102040800102040810208D
:10023000408000000A0B02090C0D0E0807030401A0
:1002400000000000000000000000000000000000AE
:10025000000000000000000000000000000012117B
:10026000100000000000000000000000000000007E
:100270000000000000000000440711241FBECFEF63
:10028000D1E2DEBFCDBF00E00CBF23E0A6E6B2E0C6
:1002900001C01D92AC3CB207E1F712E0A0E0B2E071
:1002A000E6EDFFE100E00BBF02C007900D92A6361D
:1002B000B107D9F711E0CDE3D1E000E006C0219706
:1002C0000109802FFE010E94A40FCC33D10780E0EA
:1002D0000807A9F70E9426090C94E90F0C94000066
:1002E000AFE6B2E0E3E7F2E08D91882329F0808168
:1002F0009181019791838083329682E0A337B8077A
:1003000099F70895E0917B02F0917C02EE0FFF1FB8
:10031000ED58FD4F808191810F96918380830895E0
:10032000E0917B02F0917C02EE0FFF1FED58FD4F34
:10033000808191818F3091051CF411821082089583
:100340000F97918380830895AF92BF92CF92DF92EF
:10035000EF92FF920F931F93CF93DF936C017B017A
:100360008B01040F151FEB015E01AE18BF08C0170B
:10037000D10759F06991D601ED91FC910190F0817E
:10038000E02DC6011995892B79F7C501DF91CF9131
:100390001F910F91FF90EF90DF90CF90BF90AF90A3
:1003A0000895FC01538D448D252F30E0842F90E07B
:1003B000821B930B541710F0CF9608950197089560
:1003C000FC01918D828D981761F0A28DAE0FBF2F29
:1003D000B11D5D968C91928D9F5F9F73928F90E07F
:1003E00008958FEF9FEF0895FC01918D828D9817EE
:1003F00031F0828DE80FF11D858D90E008958FEF2B
:100400009FEF0895FC01918D228D892F90E0805CF3
:100410009F4F821B91098F73992708958DE792E072
:100420000E94020221E0892B09F420E0822F089526
:10043000FC01A48DA80FB92FB11DA35ABF4F2C9159
:10044000848D90E001968F739927848FA689B78950
:100450002C93A089B1898C91837080648C93938D47
:10046000848D981306C00288F389E02D80818F7DEA
:1004700080830895EF92FF920F931F93CF93DF93A2
:10048000EC0181E0888F9B8D8C8D98131AC0E889D0
:10049000F989808185FF15C09FB7F894EE89FF899F
:1004A0006083E889F98980818370806480839FBF3D
:1004B00081E090E0DF91CF911F910F91FF90EF903D
:1004C0000895F62E0B8D10E00F5F1F4F0F7311274D
:1004D000E02E8C8D8E110CC00FB607FCFACFE88988
:1004E000F989808185FFF5CFCE010E941802F1CFF6
:1004F000EB8DEC0FFD2FF11DE35AFF4FF0829FB7FC
:10050000F8940B8FEA89FB8980818062CFCFCF93EB
:10051000DF93EC01888D8823B9F0AA89BB89E8892B
:10052000F9898C9185FD03C0808186FD0DC00FB6D1
:1005300007FCF7CF8C9185FFF2CF808185FFEDCF4F
:10054000CE010E941802E9CFDF91CF91089580E09B
:1005500090E0892B29F00E940E0281110E94000078
:1005600080E090E0892B49F080E090E0892B29F031
:100570000E94000081110E94000080E090E0892B21
:1005800049F080E090E0892B29F00E940000811161
:100590000E94000080E090E0892B49F080E090E02C
:1005A000892B29F00E94000081110C94000008950D
:1005B0008150823108F05AC0E82FF0E08827EC51D2
:1005C000FD4F8F4F0C94A40F04030803F602FC02A6
:1005D000000336030B03110315031B031F0323033F
:1005E00029032D033603310337033B038091800039
:1005F0008F77809380000895809180008F7DF9CF60
:1006000080918000877FF5CF84B58F7784BD089572
:1006100084B58F7DFBCF8091B0008F778093B00041
:1006200008958091B0008F7DF9CF809190008F77F1
:10063000809390000895809190008F7DF9CF8091F4
:100640009000877FF5CF8091A0008F778093A000E6
:1006500008958091A0008F7DF9CF8091A000877FC1
:10066000F5CF809120018F778093200108958091AC
:1006700020018F7DF9CF80912001877FF5CF1F93D7
:10068000CF93DF93282F30E0F901EE5CFD4F84918A
:10069000F901E451FE4FD491F901EA55FE4FC4919E
:1006A000CC23A9F0162F81110E94D802EC2FF0E084
:1006B000EE0FFF1FE457FE4FA591B4918FB7F8944A
:1006C000EC91111108C0D095DE23DC938FBFDF9130
:1006D000CF911F910895DE2BF8CFCF93DF93C09178
:1006E0007B02D0917C02FE01E159FD4F2081CE01B9
:1006F000880F991F211107C0DC01AD58BD4F2D9106
:100700003C91232B11F58C5C9D4FFC01808161E0B5
:10071000C330D1058CF40E943F032196D0937C0214
:10072000C0937B02CC0FDD1FCC5CDD4F60E0888185
:10073000DF91CF910C943F030E943F0310927C0203
:1007400010927B0260E08DE0F3CF81E08083DF9147
:10075000CF910895FF920F931F93CF93DF93082FAC
:10076000162FF42EC22FD8E06C2FF11015C0617037
:10077000802F0E943F03C69561E0812F0E943F03B6
:1007800060E0812F0E943F03D15071F7DF91CF913C
:100790001F910F91FF900895661F6627661F802F97
:1007A0000E943F03CC0FE8CFCF93DF9390E0FC0192
:1007B000E451FE4F24918A559E4FFC018491882379
:1007C000C9F090E0880F991FFC01EE58FE4FA591EB
:1007D000B491FC01E457FE4FC591D49161110DC055
:1007E0009FB7F8948C91209582238C93888128233D
:1007F00028839FBFDF91CF910895623051F49FB756
:10080000F8943C91822F809583238C93E8812E2B42
:10081000EFCF8FB7F894EC912E2B2C938FBFEACFAC
:100820003FB7F89480916B0290916C02A0916D0299
:10083000B0916E0226B5A89B05C02F3F19F0019616
:10084000A11DB11D3FBFBA2FA92F982F8827BC012A
:10085000CD01620F711D811D911D42E0660F771F52
:10086000881F991F4A95D1F708958F929F92AF9252
:10087000BF92CF92DF92EF92FF924B015C010E94F8
:1008800010046B017C010E9410046C197D098E0913
:100890009F09683E734081059105A8F321E0821A03
:1008A0009108A108B10888EEC80E83E0D81EE11CAB
:1008B000F11C81149104A104B10429F7FF90EF9079
:1008C000DF90CF90BF90AF909F908F9008952FB7FB
:1008D000F89460916702709168028091690290912A
:1008E0006A022FBF08950F931F93CF93DF93EC01FC
:1008F0002B8130E0F901EE5CFD4F8491F901E45168
:10090000FE4F0491F901EA55FE4F14911123F1F0C5
:1009100081110E94D802E12FF0E0EE0FFF1FE85A8C
:10092000FE4FA591B491EC910E2331E020E009F443
:1009300030E0832F922F2A81223010F421E0822789
:100940008170DF91CF911F910F91089590E080E029
:10095000F2CF0F931F93CF93DF93EC01888199819E
:100960008130910581F130F0029709F474C0198249
:10097000188224C08C859D85892B89F00E9467048C
:100980000A891B892C893D89601B710B820B930B93
:10099000683E73408105910510F01D861C86CE01CE
:1009A0000E947304882351F00E9467046E877F873A
:1009B000888B998B81E090E099838883DF91CF9138
:1009C0001F910F9108950E9467040E851F85288945
:1009D0003989AB01BC01401B510B620B730B8E813B
:1009E0009F81B0E0A0E0481759076A077B0730F302
:1009F000CE010E947304882309F4B9CF1B861A869E
:100A00008E8D8E7F86608E8F8C859D85892B31F4AF
:100A10000E9467046A8B7B8B8C8B9D8B8885998564
:100A20000196998788878C859D8501969D878C87FF
:100A3000EE89FF89309711F0CE0119958C859D853F
:100A4000029730F0EC8DFD8D309711F0CE011995A5
:100A500082E090E0B1CFCE010E9473048823C9F1F7
:100A60000E9467040E851F8528893989AB01BC0166
:100A7000401B510B620B730B8C819D81B0E0A0E099
:100A8000481759076A077B0708F498CF0E94670444
:100A90000E851F8528893989DC01CB01801B910BCC
:100AA000A20BB30B2A853B85820F931F9B878A87F6
:100AB0000E9467046E877F87888B998BE88DF98DFC
:100AC000309711F0CE0119958E8D8B7F81608E8FBE
:100AD00075CFEA8DFB8D309709F449CFCE0119957A
:100AE00046CF1F920F920FB60F9211240BB60F92A2
:100AF0002F933F934F935F936F937F938F939F9326
:100B0000AF93BF93EF93FF938DE792E00E9418029B
:100B1000FF91EF91BF91AF919F918F917F916F91D5
:100B20005F914F913F912F910F900BBE0F900FBE91
:100B30000F901F9018951F920F920FB60F921124CD
:100B40000BB60F922F938F939F93EF93FF93E091A8
:100B50008D02F0918E028081E0919302F0919402D7
:100B600082FD1DC09081809196028F5F8F732091CE
:100B70009702821741F0E0919602F0E0E358FD4FB2
:100B8000958F80939602FF91EF919F918F912F9176
:100B90000F900BBE0F900FBE0F901F901895808185
:100BA000F2CF1F920F920FB60F9211242F933F9303
:100BB0008F939F93AF93BF93809167029091680248
:100BC000A0916902B0916A023091660223E0230F7E
:100BD0002D3758F50196A11DB11D20936602809313
:100BE000670290936802A0936902B0936A028091B1
:100BF0006B0290916C02A0916D02B0916E02019611
:100C0000A11DB11D80936B0290936C02A0936D02A5
:100C1000B0936E02BF91AF919F918F913F912F91B1
:100C20000F900FBE0F901F90189526E8230F029685
:100C3000A11DB11DD2CF1F920F920FB60F9211249A
:100C40000BB60F92CF92DF92EF92FF922F933F93CA
:100C50004F935F936F937F938F939F93AF93BF93C4
:100C6000EF93FF93C090C003D090C103E090C20304
:100C7000F090C3038091B503813009F05DC0C114C9
:100C8000D104E104F10409F4D3C08091B4038823B2
:100C900009F47BC0E091C803F091C903309741F09B
:100CA0008091CA039091CB03009709F45CC0199519
:100CB000F8948091B503F091BC03E091BD033091AD
:100CC000BE032091BF034091B8035091B9036091D6
:100CD000BA037091BB03823009F447C08F2F9E2F57
:100CE000A32FB22F009721E0A207B10520F08FEFCC
:100CF0009FEFA0E0B0E0481B590B6A0B7B0B4093C1
:100D0000BC035093BD036093BE037093BF03109266
:100D1000B40378941C141D041E041F046CF481E0B9
:100D2000C81AD108E108F108C092C003D092C103EB
:100D3000E092C203F092C303FF91EF91BF91AF9194
:100D40009F918F917F916F915F914F913F912F91E3
:100D5000FF90EF90DF90CF900F900BBE0F900FBEE3
:100D60000F901F9018951995A3CF8F2F9E2FA32F0B
:100D7000B22F8F3F9105A105B10509F008F4BBCF53
:100D80008FEF90E0A0E0B0E0B6CFF8942091B503EB
:100D90008091BC039091BD03A091BE03B091BF03AD
:100DA000AC01BD012230B1F1009721E0A207B105ED
:100DB00020F04FEF5FEF60E070E0841B950BA60B17
:100DC000B70B8093BC039093BD03A093BE03B09375
:100DD000BF038091BC039091BD03A091BE03B0916D
:100DE000BF03892B8A2B8B2B01F58091B80390913F
:100DF000B903A091BA03B091BB038093BC03909355
:100E0000BD03A093BE03B093BF0381E08093B403FE
:100E1000789492CF8F3F9105A105B10571F268F2E8
:100E20004FEF50E060E070E0C8CF1092B403F0CF15
:100E3000F8948091B5038330D9F054F4813091F067
:100E4000823031F7809170008D7F80937000E0CF09
:100E50008430A1F08530E1F6809173008D7F80931E
:100E60007300D6CF80916F008D7F80936F00D0CFBD
:100E7000809171008D7F80937100CACF8091720044
:100E80008D7F80937200C4CFDF92EF92FF920F9319
:100E90001F93CF93DF9300D01F92CDB7DEB7109290
:100EA000800210927F0288EE93E0A0E0B0E0809391
:100EB000810290938202A0938302B093840280E423
:100EC00092E090937E0280937D0285EC90E0909377
:100ED0008A028093890284EC90E090938C02809344
:100EE0008B0280EC90E090938E0280938D0281ECD7
:100EF00090E09093900280938F0282EC90E0909328
:100F000092028093910286EC90E0909394028093F9
:100F100093021092960210929702109298021092E9
:100F2000990211E01093B5031092C4031092C50307
:100F30001092C6031092C7031092C9031092C803FF
:100F40001092CB031092CA031C821B8284E090E0B3
:100F50009A838983909378038093770387E090E066
:100F600090937A038093790388E090E090937C03D8
:100F700080937B0361E084E00E94D40361E0809170
:100F800079030E94D40361E080917B030E94D40323
:100F900010927D0310937E0310937F03E6E5F2E049
:100FA00024EA33E0819191918830910508F03DC1A8
:100FB000825B9D4FDC018C91D9018D939D01B2E044
:100FC000E636FB0779F710928103109280031092A6
:100FD000830310928203DE011196E4E8F3E090E0CF
:100FE00080E030E020E08C014D915D9114161506F3
:100FF0000CF023C1BA01620F731F019669307105AD
:101000000CF415C130938103209380030093820375
:101010001093830348E050E06FEF70E08CEA93E0B8
:101020000E94E20F60E0809177030E943F0320E07E
:1010300041E06091790380917B030E94AA0320E044
:1010400041E06091790380917B030E94AA0361E0F3
:10105000809177030E943F03109259031092580326
:1010600062E087E30E94D403109259031092580360
:10107000109266031092670310926803109269033E
:1010800010926A0310926B0310926C0310926D031E
:1010900087E380935B03DD24D394D0925A0388E8DE
:1010A000E82E83E1F82EF0925D03E0925C0304E108
:1010B00010E010935F0300935E031092610310929F
:1010C0006003109263031092620310926503109202
:1010D000640310926F0310926E03109271031092CA
:1010E00070031092730310927203109275031092A2
:1010F00074031092760310923A031092390362E05F
:1011000088E30E94D40310923A031092390310929C
:101110004703109248031092490310924A03109219
:101120004B0310924C0310924D0310924E0388E330
:1011300080933C03D0923B03F0923E03E0923D0348
:101140001093400300933F03109242031092410317
:1011500010924403109243031092460310924503E9
:101160001092500310924F031092520310925103A9
:101170001092540310925303109256031092550389
:101180001092570310921B0310921A0362E089E336
:101190000E94D40310921B0310921A03109228038A
:1011A0001092290310922A0310922B0310922C0301
:1011B00010922D0310922E0310922F0389E3809337
:1011C0001D03D0921C03F0921F03E0921E031093A4
:1011D0002103009320031092230310922203109204
:1011E00025031092240310922703109226031092D5
:1011F0003103109230031092330310923203109295
:101200003503109234031092370310923603109274
:1012100038030F900F900F900F90DF91CF911F9197
:101220000F91FF90EF90DF90089580E0C5CE318B55
:10123000208B419351939B01D6CE30938103209311
:1012400080039093830380938203E4CECF93DF9354
:101250001F921F92CDB7DEB7789484B5826084BDAB
:1012600084B5816084BD85B5826085BD85B58160AA
:1012700085BD80916E00816080936E001092810028
:1012800080918100826080938100809181008160E3
:1012900080938100809180008160809380008091A4
:1012A000B10084608093B1008091B0008160809330
:1012B000B0008091910082608093910080919100B4
:1012C0008160809391008091900081608093900074
:1012D0008091A10082608093A1008091A100816033
:1012E0008093A1008091A00081608093A0008091F4
:1012F000210182608093210180912101816080938E
:1013000021018091200181608093200180917A00E9
:10131000846080937A0080917A00826080937A0062
:1013200080917A00816080937A0080917A00806851
:1013300080937A001092C100E0918D02F0918E02AC
:1013400082E08083E0918902F0918A021082E0912C
:101350008B02F0918C028FEC808310929502E091C9
:101360009102F091920286E08083E0918F02F091E9
:101370009002808180618083E0918F02F0919002E1
:10138000808188608083E0918F02F091900280815B
:1013900080688083E0918F02F091900280818F7D40
:1013A000808361E08DE00E94D40361E08CE00E94C4
:1013B000D40361E08BE00E94D40361E08AE00E94E4
:1013C000D40360E08DE00E943F0361E08CE00E9466
:1013D0003F0361E08BE00E943F0361E08AE00E94EE
:1013E0003F038091B503F894833009F469C0BCF5DC
:1013F000813009F447C0823009F453C08093B503AB
:1014000078948091B50318160CF0FBC04FEF5FEF96
:10141000BA014093C0035093C1036093C203709319
:10142000C303823009F46AC08FEF93E2A4EFB0E007
:101430008093B8039093B903A093BA03B093BB030E
:101440008093BC039093BD03A093BE03B093BF03EE
:1014500081E090E09093B7038093B60389C0843015
:10146000F1F1853059F610922001109221019091EE
:1014700021019860909321019091210191609093B6
:101480002101BCCF109280001092810090918100C8
:101490009860909381009091810091609093810079
:1014A000ADCF1092B0001092B1009091B000926058
:1014B0009093B0009091B10091609093B1009ECF55
:1014C00010929000109291009091910098609093EA
:1014D0009100909191009160909391008FCF109224
:1014E000A0001092A1009091A10098609093A1009B
:1014F0009091A10091609093A10080CF52E0E52EE1
:1015000052E0F52E01E010E0F701619171917F0149
:1015100090E080E00E94D50D9B01AC0160E074E298
:1015200084E79BE40E94D00E20E030E040E85FE3D7
:101530000E94630E0E94420F6115F0EC7F07FFE3EB
:101540008F07910508F0AAC06093B8037093B903A0
:101550008093BA039093BB036093BC037093BD0365
:101560008093BE039093BF031093B7030093B60319
:10157000F89480E090E0A0E8BFE38093C4039093E8
:10158000C503A093C603B093C70380E791E090938F
:10159000C9038093C8031092CB031092CA03109220
:1015A000B4032091B503223009F091C08091B100BD
:1015B000887F9091B603892B8093B1008091BC0302
:1015C0009091BD03A091BE03B091BF03233009F4F5
:1015D00013C10CF0A9C0213009F4CDC0223009F4A8
:1015E000EBC08091BC039091BD03A091BE03B0916C
:1015F000BF03892B8A2B8B2B19F481E08093B403D2
:10160000789482E891E090936F0380936E0380E971
:1016100091E09093500380934F038DE693E0909375
:1016200031038093300361E083E00E94D40361E0E2
:1016300083E00E943F034AE0842E912CA12CB12C20
:10164000E0917B02F0917C02EE0FFF1FED58FD4F01
:10165000808191816CE370E00E94710F24E6269FE7
:101660001001279F300C1124280E391E2101330C44
:10167000660877088DB79EB79A838983A301920184
:1016800010E000E00F5F1F4F57FFF8C050954095E6
:10169000309521953F4F4F4F5F4FF4CF0F5F1F4F56
:1016A0000830110509F030CF6093B8037093B90387
:1016B0008093BA039093BB036093BC037093BD0304
:1016C0008093BE039093BF0387E090E0C3CE2130A8
:1016D00049F480918100887F9091B603892B809393
:1016E00081006CCF233049F480919100887F9091E4
:1016F000B603892B8093910061CF243049F4809107
:10170000A100887F9091B603892B8093A10056CFCA
:10171000253009F053CF80912101887F9091B60345
:10172000892B809321014ACF243009F486C02530CB
:1017300009F057CFAC01BD010097F1E0AF07B1054B
:1017400020F04FEF5FEF60E070E05093290140938D
:101750002801841B950BA60BB70B8093BC039093B9
:10176000BD03A093BE03B093BF038091730082605A
:101770008093730036CFAC01BD01009721E0A20732
:10178000B10520F04FEF5FEF60E070E0509389000B
:1017900040938800841B950BA60BB70B8093BC036A
:1017A0009093BD03A093BE03B093BF0380916F00DD
:1017B000826080936F0015CFAC01BD018F3F910512
:1017C000A105B10529F020F04FEF50E060E070E096
:1017D0004093B300841B950BA60BB70B8093BC03FF
:1017E0009093BD03A093BE03B093BF03809170009C
:1017F000826080937000F5CEAC01BD01009731E0AE
:10180000A307B10520F04FEF5FEF60E070E0509369
:10181000990040939800841B950BA60BB70B8093FF
:10182000BC039093BD03A093BE03B093BF0380910C
:101830007100826080937100D4CEAC01BD0100972D
:10184000E1E0AE07B10520F04FEF5FEF60E070E040
:101850005093A9004093A800841B950BA60BB70BCF
:101860008093BC039093BD03A093BE03B093BF03CA
:1018700080917200826080937200B3CE2A3031056D
:10188000410551053CF0CA01B901A50194010E942E
:10189000850FF8CEEDB7FEB7E01BF10B0FB6F8944D
:1018A000FEBF0FBEEDBF2DB73EB72F5F3F4F790193
:1018B000312C77FE0AC07094609450944094411C7F
:1018C000511C611C711C332433946701C00ED11E5E
:1018D000C301B201A50194010E94850F605DF6016C
:1018E00062936F0129013A01EE15FF0589F7332054
:1018F00019F02DE2F70120838091840390918503F4
:10190000FC0131972DB73EB7281B390B0FB6F89461
:101910003EBF0FBE2DBF4DB75EB74F5F5F4FBC01DF
:10192000601B710BDA019D01241B350B261737074D
:101930001CF430E33D93F7CF9B01E217F3077CF0F3
:1019400037FD0AC0D901A61BB70BAE0DBF1D1C91F8
:10195000DA01A20FB31F1C932F5F3F4FEECFEDB7FD
:10196000FEB7E81BF90B0FB6F894FEBF0FBEEDBF34
:101970002DB73EB72F5F3F4FBA01D901FB01E41BE2
:10198000F50BE817F9075CF5FB011191BF01F0EDCC
:10199000F10FFA3048F4E12F110FFF0BE650FE4F24
:1019A000E081EC931196EACFFFE9F10FFA3130F4C0
:1019B000E12F110FFF0BE155FE4FF2CFFFEBF10FBF
:1019C000FA3130F4E12F110FFF0BE153FE4FE8CF56
:1019D0001D3219F4F2E0FC93E5CF1C92E3CF609145
:1019E0007D03E0919403F0919503E455FC4FD901F8
:1019F000AD01421B530B4817590734F44D91611147
:101A000001C040954193F4CF29813A810FB6F894F3
:101A10003EBF0FBE2DBF80918203909183031816A5
:101A200019069CF4809184039091850302976CF0D1
:101A3000E0919403F0919503E858FC4F85A99091AB
:101A40007D0391113DC08E7F85AB80917E038823FD
:101A500009F443C007E713E020918003309181032C
:101A6000C80187579340821793070CF057C060E076
:101A7000809177030E943F0380917F03F8018111D9
:101A800021C025A540E06091790380917B030E94ED
:101A9000AA03F80125A940E06091790380917B03B6
:101AA0000E94AA0361E0809177030E943F0361E0F6
:101AB00070E080E090E00E9435040F5F1F4FCCCFB4
:101AC0008160C2CF25A940E06091790380917B03BA
:101AD0000E94AA03F80125A5DECF60E0809177037C
:101AE0000E943F03009180031091810309581C4F0D
:101AF00001501109C8018757934097FD0AC0F801AA
:101B000025A940E06091790380917B030E94AA039C
:101B1000EFCF61E0809177030E943F0388E593E077
:101B20000E94A90489E393E00E94A9048AE193E05A
:101B30000E94A90493E7E92E92E0F92E2FE6C22E27
:101B400022E0D22E10E000E0F701819191917F0117
:101B5000892B01F5F60180818823E1F0108260E095
:101B600083E00E943F0364EF71E080E090E00E9418
:101B7000350461E083E00E943F03F7013297118250
:101B80001082F801EE0FFF1FEC5CFD4F61E08081D9
:101B90000E943F030F5F1F4FFFEFCF1ADF0A043091
:101BA000110591F60E94A7024BCDE89409C097FB5E
:101BB0003EF490958095709561957F4F8F4F9F4F24
:101BC0009923A9F0F92F96E9BB279395F695879568
:101BD00077956795B795F111F8CFFAF4BB0F11F42B
:101BE00060FF1BC06F5F7F4F8F4F9F4F16C08823D2
:101BF00011F096E911C0772321F09EE8872F762F08
:101C000005C0662371F096E8862F70E060E02AF048
:101C10009A95660F771F881FDAF7880F9695879534
:101C200097F9089597F99F6780E870E060E008955C
:101C30009FEF80EC089500240A94161617061806E4
:101C40000906089500240A941216130614060506C0
:101C50000895092E0394000C11F4882352F0BB0F51
:101C600040F4BF2B11F460FF04C06F5F7F4F8F4FB4
:101C70009F4F089557FD9058440F551F59F05F3FEF
:101C800071F04795880F97FB991F61F09F3F79F09E
:101C900087950895121613061406551FF2CF469520
:101CA000F1DF08C0161617061806991FF1CF8695A2
:101CB0007105610508940895E894BB276627772786
:101CC000CB0197F908955058BB27AA270E947B0E95
:101CD0000C94290E0E941B0E38F00E94220E20F058
:101CE00039F49F3F19F426F40C94180E0EF4E09585
:101CF000E7FB0C94120EE92F0E943A0E58F3BA1724
:101D0000620773078407950720F079F4A6F50C9411
:101D10005C0E0EF4E0950B2EBA2FA02D0B01B9012D
:101D200090010C01CA01A0011124FF27591B99F051
:101D3000593F50F4503E68F11A16F040A22F232F5D
:101D4000342F4427585FF3CF469537952795A795AD
:101D5000F0405395C9F77EF41F16BA0B620B730B54
:101D6000840BBAF09150A1F0FF0FBB1F661F771FC5
:101D7000881FC2F70EC0BA0F621F731F841F48F47A
:101D8000879577956795B795F7959E3F08F0B0CF03
:101D90009395880F08F09927EE0F979587950895EA
:101DA0000E94E40E0C94290E0E94220E58F00E940C
:101DB0001B0E40F029F45F3F29F00C94120E5111D4
:101DC0000C945D0E0C94180E0E943A0E68F3992341
:101DD000B1F3552391F3951B550BBB27AA27621727
:101DE0007307840738F09F5F5F4F220F331F441F34
:101DF000AA1FA9F335D00E2E3AF0E0E832D0915068
:101E00005040E695001CCAF72BD0FE2F29D0660F54
:101E1000771F881FBB1F261737074807AB07B0E897
:101E200009F0BB0B802DBF01FF2793585F4F3AF09D
:101E30009E3F510578F00C94120E0C945D0E5F3F9E
:101E4000E4F3983ED4F3869577956795B795F79523
:101E50009F5FC9F7880F911D9695879597F908950B
:101E6000E1E0660F771F881FBB1F621773078407A7
:101E7000BA0720F0621B730B840BBA0BEE1F88F7B6
:101E8000E09508950E94420E88F09F5798F0B92F70
:101E90009927B751B0F0E1F0660F771F881F991F9F
:101EA0001AF0BA95C9F714C0B13091F00E945C0ED7
:101EB000B1E008950C945C0E672F782F8827B85FE7
:101EC00039F0B93FCCF3869577956795B395D9F7F7
:101ED0003EF490958095709561957F4F8F4F9F4F01
:101EE000089597FB072E16F4009407D077FD09D0CC
:101EF0000E94AC0F07FC05D03EF4909581959F4F52
:101F00000895709561957F4F0895052E97FB1EF4F7
:101F100000940E949C0F57FD07D00E94C00F07FC41
:101F200003D04EF40C949C0F50954095309521951C
:101F30003F4F4F4F5F4F08959095809570956195F5
:101F40007F4F8F4F9F4F0895EE0FFF1F881F8BBF4E
:101F50000790F691E02D1994AA1BBB1B51E107C015
:101F6000AA1FBB1FA617B70710F0A61BB70B881F29
:101F7000991F5A95A9F780959095BC01CD010895B8
:101F8000A1E21A2EAA1BBB1BFD010DC0AA1FBB1F7D
:101F9000EE1FFF1FA217B307E407F50720F0A21BEF
:101FA000B30BE40BF50B661F771F881F991F1A945C
:101FB00069F760957095809590959B01AC01BD0186
:101FC000CF010895DC0101C06D9341505040E0F70E
:101FD0000895F894FFCF01000100080020004000A0
:101FE000800000010004EE3E9C7A9E8EBC6E0C7850
:101FF000AE1CEC2A3ACEE68CB61E387C7E6C76DAC5
:10200000FC60DAF266B6BEE0FEE60D000C000B00E6
:102010000A00000000003A02A401D1018702020276
:10202000E001F401804020100804020100000100DA
:0C20300002000300040005000600070089
:10E000000D9489F10D94B2F10D94B2F10D94B2F129
:10E010000D94B2F10D94B2F10D94B2F10D94B2F1F0
:10E020000D94B2F10D94B2F10D94B2F10D94B2F1E0
:10E030000D94B2F10D94B2F10D94B2F10D94B2F1D0
:10E040000D94B2F10D94B2F10D94B2F10D94B2F1C0
:10E050000D94B2F10D94B2F10D94B2F10D94B2F1B0
:10E060000D94B2F10D94B2F10D94B2F10D94B2F1A0
:10E070000D94B2F10D94B2F10D94B2F10D94B2F190
:10E080000D94B2F10D94B2F10D94B2F10D94B2F180
:10E090000D94B2F10D94B2F10D94B2F10D94B2F170
:10E0A0000D94B2F10D94B2F10D94B2F10D94B2F160
:10E0B0000D94B2F10D94B2F10D94B2F10D94B2F150
:10E0C0000D94B2F10D94B2F10D94B2F10D94B2F140
:10E0D0000D94B2F10D94B2F10D94B2F10D94B2F130
:10E0E0000D94B2F141546D656761323536300041AF
:10E0F000726475696E6F206578706C6F72657220DE
:10E1000073746B3530305632206279204D4C530099
:10E11000426F6F746C6F616465723E004875683F52
:10E1200000436F6D70696C6564206F6E203D200048
:10E130004350552054797065202020203D20005FF9
:10E140005F4156525F415243485F5F3D2000415658
:10E1500052204C696243205665723D20004743437C
:10E160002056657273696F6E203D20004350552024
:10E1700049442020202020203D20004C6F7720663D
:10E18000757365202020203D20004869676820665F
:10E190007573652020203D200045787420667573D6
:10E1A00065202020203D20004C6F636B2066757336
:10E1B000652020203D20004D617220203720323024
:10E1C000313300312E362E3800342E332E350056A2
:10E1D00023202020414444522020206F7020636F70
:10E1E00064652020202020696E73747275637469E1
:10E1F0006F6E2061646472202020496E74657272B3
:10E20000757074006E6F20766563746F7200726A49
:10E210006D702020006A6D70200057686174207056
:10E220006F72743A00506F7274206E6F7420737541
:10E2300070706F72746564004D7573742062652030
:10E2400061206C6574746572002000577269747483
:10E25000696E672045450052656164696E672045B7
:10E26000450045452065727220636E743D00504F35
:10E27000525400303D5A65726F2061646472003FF1
:10E280003D43505520737461747300403D454550C3
:10E29000524F4D207465737400423D426C696E6B41
:10E2A000204C454400453D44756D70204545505215
:10E2B0004F4D00463D44756D7020464C415348001B
:10E2C000483D48656C70004C3D4C69737420492F83
:10E2D0004F20506F72747300513D51756974005234
:10E2E0003D44756D702052414D00563D73686F7707
:10E2F00020696E7465727275707420566563746FF0
:10E30000727300593D506F727420626C696E6B00BD
:10E310002A0011241FBECFEFD1E2DEBFCDBF01E046
:10E320000CBF12E0A0E0B2E0EEE1FDEF03E00BBFB6
:10E3300002C007900D92A030B107D9F712E0A0E01B
:10E34000B2E001C01D92AE30B107E1F70F9460F367
:10E350000D948DFE01E20EBF0FEF0DBF11241FBE05
:10E360000D9460F30D9400F020E030E040ED57E0B4
:10E3700005C0FA013197F1F72F5F3F4F2817390792
:10E38000C0F308959C01260F311DC901A0E0B0E043
:10E390002F5F3F4FABBFFC018791882361F08093D3
:10E3A000C6008091C00086FFFCCF8091C0008064D1
:10E3B0008093C000EACF08958DE08093C6008091DD
:10E3C000C00086FFFCCF8091C00080648093C000B5
:10E3D0008AE08093C6008091C00086FFFCCF8091C8
:10E3E000C00080648093C00008950F94C2F10F9420
:10E3F000DCF10895FC019081992359F09093C600B7
:10E400008091C00086FFFCCF8091C0008064809323
:10E41000C0003196992379F70895282F982F929567
:10E420009F70892F805D8A3308F0895F8093C600D2
:10E430008091C00086FFFCCF8091C00080648093F3
:10E44000C000822F8F70982F905D9A3308F0995FEB
:10E450009093C6008091C00086FFFCCF8091C000E1
:10E4600080648093C00008959C01FB01853691056E
:10E470001CF46330710594F0C90164E670E00F94F8
:10E480002EFE605D7F4F6093C6008091C00086FFC6
:10E49000FCCF8091C00080648093C0002B30310598
:10E4A00014F43297B4F0C90164E670E00F942EFEC4
:10E4B0006AE070E00F942EFE605D7F4F6093C600AF
:10E4C0008091C00086FFFCCF8091C0008064809363
:10E4D000C000C9016AE070E00F942EFEC0968093E0
:10E4E000C6008091C00086FFFCCF8091C000806490
:10E4F0008093C00008951F93182F8EE692EE60E07F
:10E500000F94C2F11093C6008091C00086FFFCCF2B
:10E510008091C00080648093C0000F94DCF11F9153
:10E5200008952F923F924F925F926F927F928F92B7
:10E530009F92AF92BF92CF92DF92EF92FF920F9392
:10E540001F93DF93CF93CDB7DEB762970FB6F894E2
:10E55000DEBF0FBECDBF382E622ECA01DB015C01CB
:10E560006D01772420E2222E2E010894411C511CBB
:10E570008BC081E0A81680E0B80681E0C80680E084
:10E58000D80628F0C601AA27BB270F940DF2BB2797
:10E59000AD2D9C2D8B2D0F940DF28A2D0F940DF225
:10E5A0002092C6008091C00086FFFCCF8091C00001
:10E5B00080648093C0009DE29093C6008091C0006B
:10E5C00086FFFCCF8091C00080648093C0002092C1
:10E5D000C6008091C00086FFFCCF8091C00080649F
:10E5E0008093C00019828601750188249924A1E0D6
:10E5F0003A1651F03A1620F0B2E03B1661F409C029
:10E600000BBFF701779007C0C7010F9477FE782EF4
:10E6100002C0F7017080872D0F940DF22092C60082
:10E620008091C00086FFFCCF8091C0008064809301
:10E63000C000872D8052F401EF70F0708F3520F408
:10E64000E40DF51D708204C0E40DF51D8EE280839B
:10E650000894E11CF11C011D111D0894811C911CE2
:10E6600090E18916910409F0C2CF80E190E0A0E02A
:10E67000B0E0A80EB91ECA1EDB1E198AC2010F9493
:10E68000FAF10F94DCF16A94662009F072CF629679
:10E690000FB6F894DEBF0FBECDBFCF91DF911F91B3
:10E6A0000F91FF90EF90DF90CF90BF90AF909F9031
:10E6B0008F907F906F905F904F903F902F90089534
:10E6C0002F923F924F925F926F927F928F929F9282
:10E6D000AF92BF92CF92DF92EF92FF920F931F9370
:10E6E000DF93CF93CDB7DEB7CD53D1400FB6F894BB
:10E6F000DEBF0FBECDBF01E20EBF0FEF0DBF94B75F
:10E70000F894A89514BE80916000886180936000A1
:10E7100010926000789493FF05C0E0910002F091A0
:10E7200001021995279A2F9A8091C00082608093E8
:10E73000C00080E18093C40088E18093C1000000A4
:10E74000EE24FF24870144E0A42EB12CCC24DD2448
:10E7500024C0C5010197F1F70894E11CF11C011DCB
:10E76000111D21E2E2162EE4F20620E0020720E06D
:10E77000120718F031E0C32ED12CC801B70127ECE5
:10E780003BE140E050E00F9441FE611571058105C9
:10E79000910519F485B1805885B98091C00087FD35
:10E7A00003C0C114D104A9F2A6014F5F5F4FC25E3E
:10E7B000DE4F59834883CE51D140C25EDE4F8881FF
:10E7C0009981CE51D140019711F00D9410FEC05D9A
:10E7D000DE4F19821882C053D14060E0C15DDE4F28
:10E7E0001882CF52D14088249924C35DDE4F19820C
:10E7F0001882CD52D140C05EDE4F188219821A8233
:10E800001B82C052D140CE5CDE4F188219821A8220
:10E810001B82C253D140EE24FF2487010BBFF701B6
:10E8200007911691C45CDE4F19830883CC53D14005
:10E830000D940BFEC25EDE4F28813981CE51D1404E
:10E840002130310509F52091C600C25EDE4F1982E4
:10E850001882CE51D14022C02F5F3F4F4F4F5F4FA4
:10E86000213082E138078AE7480780E0580780F0C6
:10E87000C45CDE4FE881F981CC53D140EF5FFF4F9C
:10E8800019F0EE27FF27099420E030E040E050E047
:10E890008091C00087FFE0CF2091C600C35DDE4FAE
:10E8A00048815981CD52D1404F5F5F4FC35DDE4FEC
:10E8B00059834883CD52D140213209F063C64A3092
:10E8C000510508F05FC60894811C911C53E0851621
:10E8D000910409F059C600E010E018C081E280936D
:10E8E000C6008091C00086FFFCCF8091C00080648C
:10E8F0008093C0002F5F3F4F2931310579F70F9486
:10E90000DCF10F5F1F4F0530110519F020E030E0FA
:10E91000E5CF10920A0210920B0210920C02109294
:10E920000D02109206021092070210920802109235
:10E930000902109202021092030210920402109235
:10E9400005028FEE90EE60E00F94F5F180E191EE1C
:10E9500060E00F94C2F18091C00087FFFCCF9091DE
:10E96000C600903608F09F759032B8F09093C600BC
:10E970008091C00086FFFCCF8091C00080648093AE
:10E98000C000A0E2A093C6008091C00086FFFCCF2B
:10E990008091C00080648093C000983409F4D7C18E
:10E9A0009934B8F4923409F459C1933458F490333B
:10E9B00019F1903308F4E3C59F33A1F1903409F0C5
:10E9C000DEC5BDC0953409F470C1963409F0D7C5D1
:10E9D00098C1923509F42BC2933538F49C3409F46C
:10E9E000F5C1913509F0CBC518C2963509F445C279
:10E9F000993509F0C4C567C483E792EE62E00F94CD
:10EA0000F5F110920602109207021092080210927D
:10EA1000090210920A0210920B0210920C0210923C
:10EA20000D0213C18FE792EE62E00F94F5F18FEEC5
:10EA300090EE60E00F94F5F181E291EE60E00F94CA
:10EA4000C2F187EB91EE60E00F94F5F180E391EE77
:10EA500060E00F94C2F184EE90EE60E00F94F5F167
:10EA60008FE391EE60E00F94C2F186E090E061E008
:10EA700070E00F9434F20F94DCF18DE591EE60E0DC
:10EA80000F94C2F189EC91EE60E00F94F5F18EE401
:10EA900091EE60E00F94C2F183EC91EE60E00F9490
:10EAA000F5F18CE691EE60E00F94C2F18EE10F94E7
:10EAB0000DF288E90F940DF281E00F940DF20F949E
:10EAC000DCF18BE791EE60E00F94C2F119E0E0E039
:10EAD000F0E010935700E4918E2F0F940DF20F94F5
:10EAE000DCF18AE891EE60E00F94C2F1E3E0F0E03F
:10EAF00010935700E4918E2F0F940DF20F94DCF1D8
:10EB000089E991EE60E00F94C2F1E2E0F0E0109349
:10EB10005700E4918E2F0F940DF20F94DCF188EAE8
:10EB200091EE60E00F94C2F1E1E0F0E01093570045
:10EB30001491812F0F940DF20F94DCF107CF8BE825
:10EB400092EE62E00F94F5F18BE492EE60E00F94A8
:10EB5000F5F10F94DCF100E010E019C0C8016F2D51
:10EB60000F947FFEFF2031F489E492EE60E00F9471
:10EB7000C2F10BC0F092C6008091C00086FFFCCFAE
:10EB80008091C00080648093C0000F5F1F4FC80158
:10EB900081519F41A0E0B0E0ABBFFC01F790BAE229
:10EBA000FB1621F0E2E000301E07C1F60F94DCF105
:10EBB0000F94DCF187E592EE60E00F94F5F10F948D
:10EBC000DCF1CC24DD2400E010E01EC0C8010F946D
:10EBD00077FEF82E882331F489E492EE60E00F94FA
:10EBE000C2F10BC08093C6008091C00086FFFCCFAD
:10EBF0008091C00080648093C000FE1419F00894D6
:10EC0000C11CD11C0F5F1F4FC80181519F41A0E063
:10EC1000B0E0ABBFFC01E790FAE2EF1621F022E092
:10EC20000030120799F60F94DCF10F94DCF182E6C4
:10EC300092EE60E00F94C2F1C60161E070E00F94C3
:10EC400034F20F94DCF10F94DCF110920202109276
:10EC50000302109204021092050278CE89E992EE26
:10EC600062E00F94F5F1279A2F9A16C02F9880E052
:10EC700090E0E0EDF7E03197F1F7019684369105E9
:10EC8000C1F72F9A80E090E0E0EDF7E03197F1F7DF
:10EC9000019684369105C1F78091C00087FFE6CFC9
:10ECA0008091C00087FFFCCF64C485EA92EE62E0E9
:10ECB0000F94F5F140910202509103026091040219
:10ECC0007091050281E020E10F9491F2809102029F
:10ECD00090910302A0910402B091050280509F4FD1
:10ECE000AF4FBF4F8093020290930302A0930402A0
:10ECF000B093050280509041A040B04008F426CE69
:10ED0000A4CF83EB92EE62E00F94F5F140910602FE
:10ED100050910702609108027091090280E020E1A1
:10ED20000F9491F28091060290910702A09108023F
:10ED3000B091090280509F4FAF4FBF4F80930602A2
:10ED400090930702A0930802B0930902FFCD80ECD4
:10ED500092EE62E00F94F5F183E792EE60E00F949B
:10ED6000F5F18FE792EE60E00F94F5F18BE892EE0B
:10ED700060E00F94F5F189E992EE60E00F94F5F10F
:10ED800085EA92EE60E00F94F5F183EB92EE60E09D
:10ED90000F94F5F180EC92EE60E00F94F5F187ECC2
:10EDA00092EE60E00F94F5F188ED92EE60E00F9442
:10EDB000F5F18FED92EE60E00F94F5F18AEE92EEB0
:10EDC00060E00F94F5F183E093EEBDCD87EC92EE19
:10EDD00062E00F94F5F181E40F947BF282E40F94EA
:10EDE0007BF283E40F947BF284E40F947BF285E45E
:10EDF0000F947BF286E40F947BF287E40F947BF20E
:10EE000088E40F947BF28AE40F947BF28BE40F94F6
:10EE10007BF28CE40F947BF299CD88ED92EE62E068
:10EE20000F94F5F1772473948824992409C48FED05
:10EE300092EE62E00F94F5F140910A0250910B02BC
:10EE400060910C0270910D0282E020E10F9491F22A
:10EE500080910A0290910B02A0910C02B0910D02D8
:10EE600080509F4FAF4FBF4F80930A0290930B0289
:10EE7000A0930C02B0930D0269CD8AEE92EE62E08F
:10EE80000F94F5F184EE90EE60E00F94F5F18FECC5
:10EE900091EE60E00F94F5F1662477244301CC5D98
:10EEA000DE4F19821882C452D140D401C301B695F5
:10EEB000A79597958795CA5DDE4F88839983AA8326
:10EEC000BB83C652D140CC5DDE4FA881B981C4520C
:10EED000D1401196CC5DDE4FB983A883C452D14096
:10EEE000CD0162E070E00F9434F2B0E2B093C6005E
:10EEF0008091C00086FFFCCF8091C0008064809329
:10EF0000C000EDE2E093C6008091C00086FFFCCF18
:10EF10008091C00080648093C000F0E2F093C6004E
:10EF20008091C00086FFFCCF8091C00080648093F8
:10EF3000C000CA5DDE4FE880F9800A811B81C6529D
:10EF4000D140BB27A12F902F8F2D0F940DF2CA5DBA
:10EF5000DE4F8881C652D1400F940DF2B0E2FB2EF5
:10EF6000F092C6008091C00086FFFCCF8091C00067
:10EF700080648093C0000DE30093C6008091C000C0
:10EF800086FFFCCF8091C00080648093C00010E2B7
:10EF90001093C6008091C00086FFFCCF8091C00016
:10EFA00080648093C0008BBEF3012791C65DDE4F65
:10EFB0002883CA52D140A22EBB24CC24DD2408943D
:10EFC000611C711C811C911C8BBEF3018791282E42
:10EFD0003324442455240894611C711C811C911C09
:10EFE0008BBEF3013791C55DDE4F3883CB52D140E4
:10EFF0000894611C711C811C911C8BBEF30147910C
:10F00000C45DDE4F4883CC52D140ADEFEA2EAFEF66
:10F01000FA2EAFEF0A2FAFEF1A2F6E0C7F1C801E57
:10F02000911E142D032DF22CEE24EA0CFB1C0C1D5A
:10F030001D1D0F940DF220E22093C6008091C000A8
:10F0400086FFFCCF8091C00080648093C000C65DC5
:10F05000DE4F8881CA52D1400F940DF230E23093D6
:10F06000C6008091C00086FFFCCF8091C000806404
:10F070008093C000C45DDE4F8881CC52D1400F9494
:10F080000DF240E24093C6008091C00086FFFCCFA5
:10F090008091C00080648093C000C55DDE4F888190
:10F0A000CB52D1400F940DF250E25093C6008091A4
:10F0B000C00086FFFCCF8091C00080648093C000B8
:10F0C0008FEFE8168FEFF80680E0080780E018075A
:10F0D00031F484E092EE60E00F94C2F1DFC0D80119
:10F0E000C7018070907CA070B0708050904CA040A0
:10F0F000B040D1F52FEF3FE340E050E0E222F322B1
:10F1000004231523CA5DDE4FA880B980CA80DB8046
:10F11000C652D140AE0CBF1CC01ED11EAA0CBB1CD7
:10F12000CC1CDD1C8EE092EE60E00F94C2F1BB2798
:10F13000A12F902F8F2D0F940DF28E2D0F940DF285
:10F1400030E23093C6008091C00086FFFCCF8091F2
:10F15000C00080648093C0004EE34093C60080915D
:10F16000C00086FFFCCF87C08EE09EEFA0E0B0E03D
:10F17000E822F9220A231B239CE0E91694E9F90608
:10F1800090E0090790E0190709F088C0C45DDE4FE0
:10F19000A881CC52D140EA2EFF2400E010E0102FCD
:10F1A0000F2DFE2CEE24C55DDE4FB881CB52D14031
:10F1B000EB0EF11C011D111DD601C501817090706F
:10F1C000A070B070DC0199278827E80EF91E0A1F8D
:10F1D0001B1F20EF30E040E050E0A222B322C42207
:10F1E000D52241E1AA0CBB1CCC1CDD1C4A95D1F7F1
:10F1F000EA0CFB1C0C1D1D1D81E090E0A0E0B0E0BE
:10F20000282239224A225B2235E1220C331C441C7D
:10F21000551C3A95D1F7E20CF31C041D151D57013E
:10F220006801AA0CBB1CCC1CDD1C85E192EE60E0E1
:10F230000F94C2F1C801AA27BB270F940DF2BB2778
:10F24000A12F902F8F2D0F940DF28E2D0F940DF274
:10F2500090E29093C6008091C00086FFFCCF809121
:10F26000C00080648093C000AEE3A093C60080918C
:10F27000C00086FFFCCF8091C00080648093C000F6
:10F28000C601AA27BB270F940DF2BB27AD2D9C2DDD
:10F290008B2D0F940DF28A2D0F940DF20F94DCF14B
:10F2A000CC5DDE4FE881F981C452D140F99709F471
:10F2B0004DCBF4E0EF2EF12C012D112D6E0C7F1CA7
:10F2C000801E911EF2CD83E093EE62E00F94F5F183
:10F2D0008AE192EE60E00F94C2F18091C00087FF56
:10F2E000FCCF1091C6001F751093C6008091C0001E
:10F2F00086FFFCCF8091C00080648093C0000F9493
:10F30000DCF1812F81548A3108F036C1163409F4BA
:10F3100095C0173490F4133409F44EC0143430F40B
:10F320001134F1F0123409F01DC130C0143409F465
:10F3300059C0153409F016C16BC01A3409F4C4C0A1
:10F340001B3438F4173409F48FC0183409F00AC19B
:10F35000A1C01B3409F4D2C01C3409F003C1E8C0B9
:10F360008FEF81B90DC082B1809582B980E090E0C5
:10F37000E0EDF7E03197F1F70196883C9105C1F790
:10F380008091C00087FFEFCF12B8EFC08FEF84B934
:10F390000DC085B1809585B980E090E0E0EDF7E0A3
:10F3A0003197F1F70196883C9105C1F78091C00033
:10F3B00087FFEFCF15B8D9C08FEF87B90DC088B1DF
:10F3C000809588B980E090E0E0EDF7E03197F1F7C3
:10F3D0000196883C9105C1F78091C00087FFEFCF6F
:10F3E00018B8C3C08FEF8AB90DC08BB180958BB9A7
:10F3F00080E090E0E0EDF7E03197F1F70196883C8E
:10F400009105C1F78091C00087FFEFCF1BB8ADC059
:10F410008FEF8DB90DC08EB180958EB980E090E0F0
:10F42000E0EDF7E03197F1F70196883C9105C1F7DF
:10F430008091C00087FFEFCF1EB897C08FEF80BBD1
:10F440000DC081B3809581BB80E090E0E0EDF7E0F6
:10F450003197F1F70196883C9105C1F78091C00082
:10F4600087FFEFCF11BA81C08FEF83BB0DC084B38C
:10F47000809584BB80E090E0E0EDF7E03197F1F714
:10F480000196883C9105C1F78091C00087FFEFCFBE
:10F4900014BA6BC08FEF809301010FC080910201FD
:10F4A00080958093020180E090E0E0EDF7E03197F5
:10F4B000F1F70196883C9105C1F78091C00087FF64
:10F4C000EDCF1092020151C08FEF809304010FC065
:10F4D0008091050180958093050180E090E0E0ED4A
:10F4E000F7E03197F1F70196883C9105C1F78091DB
:10F4F000C00087FFEDCF1092050137C08FEF8093DA
:10F5000007010FC08091080180958093080180E079
:10F5100090E0E0EDF7E03197F1F70196883C910536
:10F52000C1F78091C00087FFEDCF109208011DC088
:10F530008FEF80930A010FC080910B01809580931B
:10F540000B0180E090E0E0EDF7E03197F1F70196F4
:10F55000883C9105C1F78091C00087FFEDCF1092E4
:10F560000B0103C085E292EEEEC98091C00087FFD7
:10F57000FCCF8091C600EAC988E392EEE4C98CE131
:10F5800091EEE1C988249924933011F1943028F444
:10F59000913089F09230B8F408C0953061F195301F
:10F5A000F0F0963009F048C043C02B3109F042C951
:10F5B00091E06BE13FC96227C15DDE4F2883CF52E6
:10F5C000D14092E037C9B22FA0E0622793E032C960
:10F5D000822F90E0A82BB92B622794E02BC92E3004
:10F5E00009F039C3622795E0C05DDE4F19821882A9
:10F5F000C053D1401FC9E1E0F0E0EC0FFD1FC05D3A
:10F60000DE4F08811981C053D140E00FF11F2083E4
:10F610000F5F1F4FC05DDE4F19830883C053D14079
:10F6200062270A171B0709F005C9D80196E002C92D
:10F63000261709F010C303C0973009F0FBC87724E0
:10F640009981933109F412C19431C8F4963009F4C8
:10F65000D8C0973050F4923009F406C1933009F4C1
:10F660006DC0913009F059C253C0913109F477C08F
:10F67000923108F0BBC0903109F04FC2F5C098310B
:10F6800009F487C0993150F4953109F4EFC09531F0
:10F6900008F4C6C1963109F040C2C2C19A3109F4DA
:10F6A0006CC09A3108F491C09B3109F45BC09D3164
:10F6B00009F033C29D81903359F48F81882311F46E
:10F6C0009EE11CC0813011F091E018C098E916C08D
:10F6D000892F807591F0903539F4E0E0F0E089E011
:10F6E0008093570094910AC0983539F4E3E0F0E034
:10F6F00089E080935700949101C090E01A821B82A8
:10F700008D818C831D829E831F8227E030E009C299
:10F710001A8288E08B8381E48C8386E58D8382E581
:10F720008E8389E48F8383E5888780E589878FE5E9
:10F730008A8782E38B872BE030E0F3C18A818139AD
:10F7400041F0823941F0803911F48FE005C080E04A
:10F7500003C082E001C08AE01A828B8344C0772410
:10F76000739482C08D81882311F48EE12CC0813086
:10F7700011F081E028C088E926C01A82E1E0F0E0BB
:10F7800089E08093570084918B831C8224E030E0D1
:10F79000C8C18B81803589F48C81883039F4E2E0EE
:10F7A000F0E089E08093570084910DC0E0E0F0E044
:10F7B00089E080935700849106C0E3E0F0E089E09F
:10F7C0008093570084911A82DFCF8D81836C99E0FA
:10F7D000E1E0F0E0082E90935700E89507B600FCB2
:10F7E000FDCF1A821B8223E030E09BC180EC8A832C
:10F7F000CE5CDE4F188219821A821B82C253D1401E
:10F800008EC18A8190E0A0E0B0E0582F44273327D2
:10F8100022278B8190E0A0E0B0E0DC0199278827C7
:10F82000282B392B4A2B5B2B8D8190E0A0E0B0E098
:10F83000282B392B4A2B5B2B8C8190E0A0E0B0E089
:10F84000BA2FA92F982F8827282B392B4A2B5B2BCF
:10F85000220F331F441F551FC05EDE4F288339839C
:10F860004A835B83C052D1401A8259C13A81C95C34
:10F87000DE4F3883C753D140CA5CDE4F1882C6536F
:10F88000D1408B81C82EDD24CA5CDE4F488159816E
:10F89000C653D140C42AD52A933109F082C0CE5C28
:10F8A000DE4F88819981AA81BB81C253D1408050AB
:10F8B000904CA340B04030F583E0CE5CDE4FE88052
:10F8C000F9800A811B81C253D140F70100935B008C
:10F8D00080935700E89507B600FCFDCFCE5CDE4F65
:10F8E000088119812A813B81C253D14000501F4FAA
:10F8F0002F4F3F4FCE5CDE4F088319832A833B8313
:10F90000C253D140C05EDE4F488159816A817B81FC
:10F91000C052D140DE011B9631E08C9111962C91A2
:10F9200011971296C75CDE4F2883C953D140C85C3B
:10F93000DE4F1882C853D14090E0C85CDE4FE881AA
:10F94000F981C853D1408E2B9F2B0C01FA01609393
:10F950005B0030935700E89511244E5F5F4F6F4F67
:10F960007F4F0EEFE02E0FEFF02ECE0CDF1CC114F8
:10F97000D10499F685E0C05EDE4F088119812A81A5
:10F980003B81C052D140F80120935B008093570027
:10F99000E89507B600FCFDCF81E180935700E8951C
:10F9A00035C0C05EDE4F88819981AA81BB81C0527B
:10F9B000D140B695A795979587957C018601ABE0D8
:10F9C000AA2EB12CAC0EBD1E0BC0D5016D915D01F0
:10F9D000C7010F947FFE0894E11CF11C01501040F8
:10F9E0000115110591F7A60160E070E0440F551F65
:10F9F000661F771FC05EDE4FE880F9800A811B8199
:10FA0000C052D1404E0D5F1D601F711F1A82C05E33
:10FA1000DE4F488359836A837B83C052D1407FC0C5
:10FA2000FA80C55CDE4FF882CB53D140C65CDE4F16
:10FA30001882CA53D1408B81C82EDD24C65CDE4FAC
:10FA400008811981CA53D140C02AD12A1A828981DA
:10FA5000BE016D5F7F4F843121F59601C05EDE4FA0
:10FA6000E880F9800A811B81C052D1400BBFF701A9
:10FA700087919691DB018C9311969C936E5F7F4FDB
:10FA8000D801C7010296A11DB11DC05EDE4F88835B
:10FA90009983AA83BB83C052D14022503040F1F6F3
:10FAA00036C0C05EDE4F288139814A815B81C052F9
:10FAB000D1400894C108D108760100E010E0089414
:10FAC000C11CD11C0894E11CF11C011D111DE20E8A
:10FAD000F31E041F151F21BDBB27A52F942F832FB5
:10FAE00082BD2F5F3F4F4F4F5F4FF89A80B5DB01CC
:10FAF0008D93BD012E153F054007510761F7C05E8C
:10FB0000DE4F288339834A835B83C052D1409601FC
:10FB10002D5F3F4FFB01108204C080EC8A8322E0FE
:10FB200030E08BE18093C6008091C00086FFFCCF5F
:10FB30008091C00080648093C000C15DDE4FF88179
:10FB4000CF52D140F093C6008091C00086FFFCCF19
:10FB50008091C00080648093C000432F3093C60022
:10FB60008091C00086FFFCCF8091C00080648093AC
:10FB7000C000922F2093C6008091C00086FFFCCF6A
:10FB80008091C00080648093C0008EE08093C600A6
:10FB90008091C00086FFFCCF8091C000806480937C
:10FBA000C00065E1C15DDE4FE880CF52D1406E25D7
:10FBB00069276427FE01319610C090819093C6009A
:10FBC0008091C00086FFFCCF31968091C000806498
:10FBD0008093C0006927215030402115310569F715
:10FBE0006093C6008091C00086FFFCCF8091C0006A
:10FBF00080648093C00085B1805885B9772081F4F6
:10FC0000C15DDE4F0881CF52D1400F5FC15DDE4F35
:10FC10000883CF52D14090E0A0E0B0E00D941AF4F8
:10FC200027982F9880E090E020ED37E0F901319798
:10FC3000F1F7019684369105C9F700008091C00064
:10FC40008D7F8093C00081E180935700E895EE2777
:10FC5000FF270994FFCF90E00D941AF497FB092E2B
:10FC600007260AD077FD04D02ED006D000201AF443
:10FC7000709561957F4F0895F6F7909581959F4F08
:10FC80000895A1E21A2EAA1BBB1BFD010DC0AA1FDD
:10FC9000BB1FEE1FFF1FA217B307E407F50720F0F5
:10FCA000A21BB30BE40BF50B661F771F881F991F70
:10FCB0001A9469F760957095809590959B01AC01B9
:10FCC000BD01CF010895AA1BBB1B51E107C0AA1FAC
:10FCD000BB1FA617B70710F0A61BB70B881F991FED
:10FCE0005A95A9F780959095BC01CD010895F99991
:10FCF000FECF92BD81BDF89A992780B50895262F31
:10FD0000F999FECF1FBA92BD81BD20BD0FB6F89400
:0EFD1000FA9AF99A0FBE01960895F894FFCF63
:00000001FF
