:100000000C943D010C946E010C946E010C946E01E5
:100010000C946E010C946E010C946E010C946E01A4
:100020000C946E010C946E010C946E010C946E0194
:100030000C946E010C946E010C946E010C946E0184
:100040000C946E010C941B060C946E010C946E01C2
:100050000C946E010C946E010C946E010C94D105FD
:100060000C946E010C949B050C9471050C946E011C
:100070000C946E010C946E010C946E010C946E0144
:100080000C946E010C946E010C946E010C946E0134
:100090000C946E010C946E010C946E010C946E0124
:1000A0000C946E010C946E010C946E010C946E0114
:1000B0000C946E010C946E010C946E010C946E0104
:1000C0000C946E010C946E010C946E010C946E01F4
:1000D0000C946E010C946E010C946E010C946E01E4
:1000E0000C946E010C9436030C94F6020C941103DC
:1000F0000C9487020C941F030C9429030C940B039B
:100100000C942D030C9402020C9444070C943B03B2
:100110000C94E0010C943A020C9423030C94A40177
:100120000C94FC020C9490010C9470010C941B0331
:100130000C9431030C94F4010C94D1010C9437030A
:100140000C9415030C9400030C946D030C94820121
:100150000C9408030C9404030000200023002600E4
:1001600029002C002F0032000001000003010601CD
:10017000090100002100240027002A002D00300082
:10018000330001010000040107010A010000220000
:10019000250028002B002E00310034000201000051
:1001A000050108010B0105050505070508080808F4
:1001B000020202020A0A08080404040401010101FF
:1001C00001010101030303030303030304070707FA
:1001D0000C0C0C0C0C0C0C0C02020202060606069F
:1001E000060606060B0B0B0B0B0B0B0B010210206C
:1001F000200808102040102040800201020108045D
:1002000002010102040810204080804020100804F0
:100210000201800402018040201008040201080449
:10022000020101020408102040800102040810208D
:10023000408000000A0B02090C0D0E0807030401A0
:1002400000000000000000000000000000000000AE
:10025000000000000000000000000000000012117B
:10026000100000000000000000000000000000007E
:100270000000000000000000440711241FBECFEF63
:10028000D1E2DEBFCDBF00E00CBF23E0A6E6B2E0C6
:1002900001C01D92AC3CB207E1F712E0A0E0B2E071
:1002A000E6EDFFE100E00BBF02C007900D92A6361D
:1002B000B107D9F711E0CDE3D1E000E006C0219706
:1002C0000109802FFE010E94A40FCC33D10780E0EA
:1002D0000807A9F70E9426090C94E90F0C94000066
:1002E000AFE6B2E0E3E7F2E08D91882329F0808168
:1002F0009181019791838083329682E0A337B8077A
:1003000099F70895E0917B02F0917C02EE0FFF1FB8
:10031000ED58FD4F808191810F96918380830895E0
:10032000E0917B02F0917C02EE0FFF1FED58FD4F34
:10033000808191818F3091051CF411821082089583
:100340000F97918380830895AF92BF92CF92DF92EF
:10035000EF92FF920F931F93CF93DF936C017B017A
:100360008B01040F151FEB015E01AE18BF08C0170B
:10037000D10759F06991D601ED91FC910190F0817E
:10038000E02DC6011995892B79F7C501DF91CF9131
:100390001F910F91FF90EF90DF90CF90BF90AF90A3
:1003A0000895FC01538D448D252F30E0842F90E07B
:1003B000821B930B541710F0CF9608950197089560
:1003C000FC01918D828D981761F0A28DAE0FBF2F29
:1003D000B11D5D968C91928D9F5F9F73928F90E07F
:1003E00008958FEF9FEF0895FC01918D828D9817EE
:1003F00031F0828DE80FF11D858D90E008958FEF2B
:100400009FEF0895FC01918D228D892F90E0805CF3
:100410009F4F821B91098F73992708958DE792E072
:100420000E94020221E0892B09F420E0822F089526
:10043000FC01A48DA80FB92FB11DA35ABF4F2C9159
:10044000848D90E001968F739927848FA689B78950
:100450002C93A089B1898C91837080648C93938D47
:10046000848D981306C00288F389E02D80818F7DEA
:1004700080830895EF92FF920F931F93CF93DF93A2
:10048000EC0181E0888F9B8D8C8D98131AC0E889D0
:10049000F989808185FF15C09FB7F894EE89FF899F
:1004A0006083E889F98980818370806480839FBF3D
:1004B00081E090E0DF91CF911F910F91FF90EF903D
:1004C0000895F62E0B8D10E00F5F1F4F0F7311274D
:1004D000E02E8C8D8E110CC00FB607FCFACFE88988
:1004E000F989808185FFF5CFCE010E941802F1CFF6
:1004F000EB8DEC0FFD2FF11DE35AFF4FF0829FB7FC
:10050000F8940B8FEA89FB8980818062CFCFCF93EB
:10051000DF93EC01888D8823B9F0AA89BB89E8892B
:10052000F9898C9185FD03C0808186FD0DC00FB6D1
:1005300007FCF7CF8C9185FFF2CF808185FFEDCF4F
:10054000CE010E941802E9CFDF91CF91089580E09B
:1005500090E0892B29F00E940E0281110E94000078
:1005600080E090E0892B49F080E090E0892B29F031
:100570000E94000081110E94000080E090E0892B21
:1005800049F080E090E0892B29F00E940000811161
:100590000E94000080E090E0892B49F080E090E02C
:1005A000892B29F00E94000081110C94000008950D
:1005B0008150823108F05AC0E82FF0E08827EC51D2
:1005C000FD4F8F4F0C94A40F04030803F602FC02A6
:1005D000000336030B03110315031B031F0323033F
:1005E00029032D033603310337033B038091800039
:1005F0008F77809380000895809180008F7DF9CF60
:1006000080918000877FF5CF84B58F7784BD089572
:1006100084B58F7DFBCF8091B0008F778093B00041
:1006200008958091B0008F7DF9CF809190008F77F1
:10063000809390000895809190008F7DF9CF8091F4
:100640009000877FF5CF8091A0008F778093A000E6
:1006500008958091A0008F7DF9CF8091A000877FC1
:10066000F5CF809120018F778093200108958091AC
:1006700020018F7DF9CF80912001877FF5CF1F93D7
:10068000CF93DF93282F30E0F901EE5CFD4F84918A
:10069000F901E451FE4FD491F901EA55FE4FC4919E
:1006A000CC23A9F0162F81110E94D802EC2FF0E084
:1006B000EE0FFF1FE457FE4FA591B4918FB7F8944A
:1006C000EC91111108C0D095DE23DC938FBFDF9130
:1006D000CF911F910895DE2BF8CFCF93DF93C09178
:1006E0007B02D0917C02FE01E159FD4F2081CE01B9
:1006F000880F991F211107C0DC01AD58BD4F2D9106
:100700003C91232B11F58C5C9D4FFC01808161E0B5
:10071000C330D1058CF40E943F032196D0937C0214
:10072000C0937B02CC0FDD1FCC5CDD4F60E0888185
:10073000DF91CF910C943F030E943F0310927C0203
:1007400010927B0260E08DE0F3CF81E08083DF9147
:10075000CF910895FF920F931F93CF93DF93082FAC
:10076000162FF42EC22FD8E06C2FF11015C0617037
:10077000802F0E943F03C69561E0812F0E943F03B6
:1007800060E0812F0E943F03D15071F7DF91CF913C
:100790001F910F91FF900895661F6627661F802F97
:1007A0000E943F03CC0FE8CFCF93DF9390E0FC0192
:1007B000E451FE4F24918A559E4FFC018491882379
:1007C000C9F090E0880F991FFC01EE58FE4FA591EB
:1007D000B491FC01E457FE4FC591D49161110DC055
:1007E0009FB7F8948C91209582238C93888128233D
:1007F00028839FBFDF91CF910895623051F49FB756
:10080000F8943C91822F809583238C93E8812E2B42
:10081000EFCF8FB7F894EC912E2B2C938FBFEACFAC
:100820003FB7F89480916B0290916C02A0916D0299
:10083000B0916E0226B5A89B05C02F3F19F0019616
:10084000A11DB11D3FBFBA2FA92F982F8827BC012A
:10085000CD01620F711D811D911D42E0660F771F52
:10086000881F991F4A95D1F708958F929F92AF9252
:10087000BF92CF92DF92EF92FF924B015C010E94F8
:1008800010046B017C010E9410046C197D098E0913
:100890009F09683E734081059105A8F321E0821A03
:1008A0009108A108B10888EEC80E83E0D81EE11CAB
:1008B000F11C81149104A104B10429F7FF90EF9079
:1008C000DF90CF90BF90AF909F908F9008952FB7FB
:1008D000F89460916702709168028091690290912A
:1008E0006A022FBF08950F931F93CF93DF93EC01FC
:1008F0002B8130E0F901EE5CFD4F8491F901E45168
:10090000FE4F0491F901EA55FE4F14911123F1F0C5
:1009100081110E94D802E12FF0E0EE0FFF1FE85A8C
:10092000FE4FA591B491EC910E2331E020E009F443
:1009300030E0832F922F2A81223010F421E0822789
:100940008170DF91CF911F910F91089590E080E029
:10095000F2CF0F931F93CF93DF93EC01888199819E
:100960008130910581F130F0029709F474C0198249
:10097000188224C08C859D85892B89F00E9467048C
:100980000A891B892C893D89601B710B820B930B93
:10099000683E73408105910510F01D861C86CE01CE
:1009A0000E947304882351F00E9467046E877F873A
:1009B000888B998B81E090E099838883DF91CF9138
:1009C0001F910F9108950E9467040E851F85288945
:1009D0003989AB01BC01401B510B620B730B8E813B
:1009E0009F81B0E0A0E0481759076A077B0730F302
:1009F000CE010E947304882309F4B9CF1B861A869E
:100A00008E8D8E7F86608E8F8C859D85892B31F4AF
:100A10000E9467046A8B7B8B8C8B9D8B8885998564
:100A20000196998788878C859D8501969D878C87FF
:100A3000EE89FF89309711F0CE0119958C859D853F
:100A4000029730F0EC8DFD8D309711F0CE011995A5
:100A500082E090E0B1CFCE010E9473048823C9F1F7
:100A60000E9467040E851F8528893989AB01BC0166
:100A7000401B510B620B730B8C819D81B0E0A0E099
:100A8000481759076A077B0708F498CF0E94670444
:100A90000E851F8528893989DC01CB01801B910BCC
:100AA000A20BB30B2A853B85820F931F9B878A87F6
:100AB0000E9467046E877F87888B998BE88DF98DFC
:100AC000309711F0CE0119958E8D8B7F81608E8FBE
:100AD00075CFEA8DFB8D309709F449CFCE0119957A
:100AE00046CF1F920F920FB60F9211240BB60F92A2
:100AF0002F933F934F935F936F937F938F939F9326
:100B0000AF93BF93EF93FF938DE792E00E9418029B
:100B1000FF91EF91BF91AF919F918F917F916F91D5
:100B20005F914F913F912F910F900BBE0F900FBE91
:100B30000F901F9018951F920F920FB60F921124CD
:100B40000BB60F922F938F939F93EF93FF93E091A8
:100B50008D02F0918E028081E0919302F0919402D7
:100B600082FD1DC09081809196028F5F8F732091CE
:100B70009702821741F0E0919602F0E0E358FD4FB2
:100B8000958F80939602FF91EF919F918F912F9176
:100B90000F900BBE0F900FBE0F901F901895808185
:100BA000F2CF1F920F920FB60F9211242F933F9303
:100BB0008F939F93AF93BF93809167029091680248
:100BC000A0916902B0916A023091660223E0230F7E
:100BD0002D3758F50196A11DB11D20936602809313
:100BE000670290936802A0936902B0936A028091B1
:100BF0006B0290916C02A0916D02B0916E02019611
:100C0000A11DB11D80936B0290936C02A0936D02A5
:100C1000B0936E02BF91AF919F918F913F912F91B1
:100C20000F900FBE0F901F90189526E8230F029685
:100C3000A11DB11DD2CF1F920F920FB60F9211249A
:100C40000BB60F92CF92DF92EF92FF922F933F93CA
:100C50004F935F936F937F938F939F93AF93BF93C4
:100C6000EF93FF93C090C003D090C103E090C20304
:100C7000F090C3038091B503813009F05DC0C114C9
:100C8000D104E104F10409F4D3C08091B4038823B2
:100C900009F47BC0E091C803F091C903309741F09B
:100CA0008091CA039091CB03009709F45CC0199519
:100CB000F8948091B503F091BC03E091BD033091AD
:100CC000BE032091BF034091B8035091B9036091D6
:100CD000BA037091BB03823009F447C08F2F9E2F57
:100CE000A32FB22F009721E0A207B10520F08FEFCC
:100CF0009FEFA0E0B0E0481B590B6A0B7B0B4093C1
:100D0000BC035093BD036093BE037093BF03109266
:100D1000B40378941C141D041E041F046CF481E0B9
:100D2000C81AD108E108F108C092C003D092C103EB
:100D3000E092C203F092C303FF91EF91BF91AF9194
:100D40009F918F917F916F915F914F913F912F91E3
:100D5000FF90EF90DF90CF900F900BBE0F900FBEE3
:100D60000F901F9018951995A3CF8F2F9E2FA32F0B
:100D7000B22F8F3F9105A105B10509F008F4BBCF53
:100D80008FEF90E0A0E0B0E0B6CFF8942091B503EB
:100D90008091BC039091BD03A091BE03B091BF03AD
:100DA000AC01BD012230B1F1009721E0A207B105ED
:100DB00020F04FEF5FEF60E070E0841B950BA60B17
:100DC000B70B8093BC039093BD03A093BE03B09375
:100DD000BF038091BC039091BD03A091BE03B0916D
:100DE000BF03892B8A2B8B2B01F58091B80390913F
:100DF000B903A091BA03B091BB038093BC03909355
:100E0000BD03A093BE03B093BF0381E08093B403FE
:100E1000789492CF8F3F9105A105B10571F268F2E8
:100E20004FEF50E060E070E0C8CF1092B403F0CF15
:100E3000F8948091B5038330D9F054F4813091F067
:100E4000823031F7809170008D7F80937000E0CF09
:100E50008430A1F08530E1F6809173008D7F80931E
:100E60007300D6CF80916F008D7F80936F00D0CFBD
:100E7000809171008D7F80937100CACF8091720044
:100E80008D7F80937200C4CFDF92EF92FF920F9319
:100E90001F93CF93DF9300D01F92CDB7DEB7109290
:100EA000800210927F0288EE93E0A0E0B0E0809391
:100EB000810290938202A0938302B093840280E423
:100EC00092E090937E0280937D0285EC90E0909377
:100ED0008A028093890284EC90E090938C02809344
:100EE0008B0280EC90E090938E0280938D0281ECD7
:100EF00090E09093900280938F0282EC90E0909328
:100F000092028093910286EC90E0909394028093F9
:100F100093021092960210929702109298021092E9
:100F2000990211E01093B5031092C4031092C50307
:100F30001092C6031092C7031092C9031092C803FF
:100F40001092CB031092CA031C821B8284E090E0B3
:100F50009A838983909378038093770387E090E066
:100F600090937A038093790388E090E090937C03D8
:100F700080937B0361E084E00E94D40361E0809170
:100F800079030E94D40361E080917B030E94D40323
:100F900010927D0310937E0310937F03E6E5F2E049
:100FA00024EA33E0819191918830910508F03DC1A8
:100FB000825B9D4FDC018C91D9018D939D01B2E044
:100FC000E636FB0779F710928103109280031092A6
:100FD000830310928203DE011196E4E8F3E090E0CF
:100FE00080E030E020E08C014D915D9114161506F3
:100FF0000CF023C1BA01620F731F019669307105AD
:101000000CF415C130938103209380030093820375
:101010001093830348E050E06FEF70E08CEA93E0B8
:101020000E94E20F60E0809177030E943F0320E07E
:1010300041E06091790380917B030E94AA0320E044
:1010400041E06091790380917B030E94AA0361E0F3
:10105000809177030E943F03109259031092580326
:1010600062E087E30E94D403109259031092580360
:10107000109266031092670310926803109269033E
:1010800010926A0310926B0310926C0310926D031E
:1010900087E380935B03DD24D394D0925A0388E8DE
:1010A000E82E83E1F82EF0925D03E0925C0304E108
:1010B00010E010935F0300935E031092610310929F
:1010C0006003109263031092620310926503109202
:1010D000640310926F0310926E03109271031092CA
:1010E00070031092730310927203109275031092A2
:1010F00074031092760310923A031092390362E05F
:1011000088E30E94D40310923A031092390310929C
:101110004703109248031092490310924A03109219
:101120004B0310924C0310924D0310924E0388E330
:1011300080933C03D0923B03F0923E03E0923D0348
:101140001093400300933F03109242031092410317
:1011500010924403109243031092460310924503E9
:101160001092500310924F031092520310925103A9
:101170001092540310925303109256031092550389
:101180001092570310921B0310921A0362E089E336
:101190000E94D40310921B0310921A03109228038A
:1011A0001092290310922A0310922B0310922C0301
:1011B00010922D0310922E0310922F0389E3809337
:1011C0001D03D0921C03F0921F03E0921E031093A4
:1011D0002103009320031092230310922203109204
:1011E00025031092240310922703109226031092D5
:1011F0003103109230031092330310923203109295
:101200003503109234031092370310923603109274
:1012100038030F900F900F900F90DF91CF911F9197
:101220000F91FF90EF90DF90089580E0C5CE318B55
:10123000208B419351939B01D6CE30938103209311
:1012400080039093830380938203E4CECF93DF9354
:101250001F921F92CDB7DEB7789484B5826084BDAB
:1012600084B5816084BD85B5826085BD85B58160AA
:1012700085BD80916E00816080936E001092810028
:1012800080918100826080938100809181008160E3
:1012900080938100809180008160809380008091A4
:1012A000B10084608093B1008091B0008160809330
:1012B000B0008091910082608093910080919100B4
:1012C0008160809391008091900081608093900074
:1012D0008091A10082608093A1008091A100816033
:1012E0008093A1008091A00081608093A0008091F4
:1012F000210182608093210180912101816080938E
:1013000021018091200181608093200180917A00E9
:10131000846080937A0080917A00826080937A0062
:1013200080917A00816080937A0080917A00806851
:1013300080937A001092C100E0918D02F0918E02AC
:1013400082E08083E0918902F0918A021082E0912C
:101350008B02F0918C028FEC808310929502E091C9
:101360009102F091920286E08083E0918F02F091E9
:101370009002808180618083E0918F02F0919002E1
:10138000808188608083E0918F02F091900280815B
:1013900080688083E0918F02F091900280818F7D40
:1013A000808361E08DE00E94D40361E08CE00E94C4
:1013B000D40361E08BE00E94D40361E08AE00E94E4
:1013C000D40360E08DE00E943F0361E08CE00E9466
:1013D0003F0361E08BE00E943F0361E08AE00E94EE
:1013E0003F038091B503F894833009F469C0BCF5DC
:1013F000813009F447C0823009F453C08093B503AB
:1014000078948091B50318160CF0FBC04FEF5FEF96
:10141000BA014093C0035093C1036093C203709319
:10142000C303823009F46AC08FEF93E2A4EFB0E007
:101430008093B8039093B903A093BA03B093BB030E
:101440008093BC039093BD03A093BE03B093BF03EE
:1014500081E090E09093B7038093B60389C0843015
:10146000F1F1853059F610922001109221019091EE
:1014700021019860909321019091210191609093B6
:101480002101BCCF109280001092810090918100C8
:101490009860909381009091810091609093810079
:1014A000ADCF1092B0001092B1009091B000926058
:1014B0009093B0009091B10091609093B1009ECF55
:1014C00010929000109291009091910098609093EA
:1014D0009100909191009160909391008FCF109224
:1014E000A0001092A1009091A10098609093A1009B
:1014F0009091A10091609093A10080CF52E0E52EE1
:1015000052E0F52E01E010E0F701619171917F0149
:1015100090E080E00E94D50D9B01AC0160E074E298
:1015200084E79BE40E94D00E20E030E040E85FE3D7
:101530000E94630E0E94420F6115F0EC7F07FFE3EB
:101540008F07910508F0AAC06093B8037093B903A0
:101550008093BA039093BB036093BC037093BD0365
:101560008093BE039093BF031093B7030093B60319
:10157000F89480E090E0A0E8BFE38093C4039093E8
:10158000C503A093C603B093C70380E791E090938F
:10159000C9038093C8031092CB031092CA03109220
:1015A000B4032091B503223009F091C08091B100BD
:1015B000887F9091B603892B8093B1008091BC0302
:1015C0009091BD03A091BE03B091BF03233009F4F5
:1015D00013C10CF0A9C0213009F4CDC0223009F4A8
:1015E000EBC08091BC039091BD03A091BE03B0916C
:1015F000BF03892B8A2B8B2B19F481E08093B403D2
:10160000789482E891E090936F0380936E0380E971
:1016100091E09093500380934F038DE693E0909375
:1016200031038093300361E083E00E94D40361E0E2
:1016300083E00E943F034AE0842E912CA12CB12C20
:10164000E0917B02F0917C02EE0FFF1FED58FD4F01
:10165000808191816CE370E00E94710F24E6269FE7
:101660001001279F300C1124280E391E2101330C44
:10167000660877088DB79EB79A838983A301920184
:1016800010E000E00F5F1F4F57FFF8C050954095E6
:10169000309521953F4F4F4F5F4FF4CF0F5F1F4F56
:1016A0000830110509F030CF6093B8037093B90387
:1016B0008093BA039093BB036093BC037093BD0304
:1016C0008093BE039093BF0387E090E0C3CE2130A8
:1016D00049F480918100887F9091B603892B809393
:1016E00081006CCF233049F480919100887F9091E4
:1016F000B603892B8093910061CF243049F4809107
:10170000A100887F9091B603892B8093A10056CFCA
:10171000253009F053CF80912101887F9091B60345
:10172000892B809321014ACF243009F486C02530CB
:1017300009F057CFAC01BD010097F1E0AF07B1054B
:1017400020F04FEF5FEF60E070E05093290140938D
:101750002801841B950BA60BB70B8093BC039093B9
:10176000BD03A093BE03B093BF038091730082605A
:101770008093730036CFAC01BD01009721E0A20732
:10178000B10520F04FEF5FEF60E070E0509389000B
:1017900040938800841B950BA60BB70B8093BC036A
:1017A0009093BD03A093BE03B093BF0380916F00DD
:1017B000826080936F0015CFAC01BD018F3F910512
:1017C000A105B10529F020F04FEF50E060E070E096
:1017D0004093B300841B950BA60BB70B8093BC03FF
:1017E0009093BD03A093BE03B093BF03809170009C
:1017F000826080937000F5CEAC01BD01009731E0AE
:10180000A307B10520F04FEF5FEF60E070E0509369
:10181000990040939800841B950BA60BB70B8093FF
:10182000BC039093BD03A093BE03B093BF0380910C
:101830007100826080937100D4CEAC01BD0100972D
:10184000E1E0AE07B10520F04FEF5FEF60E070E040
:101850005093A9004093A800841B950BA60BB70BCF
:101860008093BC039093BD03A093BE03B093BF03CA
:1018700080917200826080937200B3CE2A3031056D
:10188000410551053CF0CA01B901A50194010E942E
:10189000850FF8CEEDB7FEB7E01BF10B0FB6F8944D
:1018A000FEBF0FBEEDBF2DB73EB72F5F3F4F790193
:1018B000312C77FE0AC07094609450944094411C7F
:1018C000511C611C711C332433946701C00ED11E5E
:1018D000C301B201A50194010E94850F605DF6016C
:1018E00062936F0129013A01EE15FF0589F7332054
:1018F00019F02DE2F70120838091840390918503F4
:10190000FC0131972DB73EB7281B390B0FB6F89461
:101910003EBF0FBE2DBF4DB75EB74F5F5F4FBC01DF
:10192000601B710BDA019D01241B350B261737074D
:101930001CF430E33D93F7CF9B01E217F3077CF0F3
:1019400037FD0AC0D901A61BB70BAE0DBF1D1C91F8
:10195000DA01A20FB31F1C932F5F3F4FEECFEDB7FD
:10196000FEB7E81BF90B0FB6F894FEBF0FBEEDBF34
:101970002DB73EB72F5F3F4FBA01D901FB01E41BE2
:10198000F50BE817F9075CF5FB011191BF01F0EDCC
:10199000F10FFA3048F4E12F110FFF0BE650FE4F24
:1019A000E081EC931196EACFFFE9F10FFA3130F4C0
:1019B000E12F110FFF0BE155FE4FF2CFFFEBF10FBF
:1019C000FA3130F4E12F110FFF0BE153FE4FE8CF56
:1019D0001D3219F4F2E0FC93E5CF1C92E3CF609145
:1019E0007D03E0919403F0919503E455FC4FD901F8
:1019F000AD01421B530B4817590734F44D91611147
:101A000001C040954193F4CF29813A810FB6F894F3
:101A10003EBF0FBE2DBF80918203909183031816A5
:101A200019069CF4809184039091850302976CF0D1
:101A3000E0919403F0919503E858FC4F85A99091AB
:101A40007D0391113DC08E7F85AB80917E038823FD
:101A500009F443C007E713E020918003309181032C
:101A6000C80187579340821793070CF057C060E076
:101A7000809177030E943F0380917F03F8018111D9
:101A800021C025A540E06091790380917B030E94ED
:101A9000AA03F80125A940E06091790380917B03B6
:101AA0000E94AA0361E0809177030E943F0361E0F6
:101AB00070E080E090E00E9435040F5F1F4FCCCFB4
:101AC0008160C2CF25A940E06091790380917B03BA
:101AD0000E94AA03F80125A5DECF60E0809177037C
:101AE0000E943F03009180031091810309581C4F0D
:101AF00001501109C8018757934097FD0AC0F801AA
:101B000025A940E06091790380917B030E94AA039C
:101B1000EFCF61E0809177030E943F0388E593E077
:101B20000E94A90489E393E00E94A9048AE193E05A
:101B30000E94A90493E7E92E92E0F92E2FE6C22E27
:101B400022E0D22E10E000E0F701819191917F0117
:101B5000892B01F5F60180818823E1F0108260E095
:101B600083E00E943F0364EF71E080E090E00E9418
:101B7000350461E083E00E943F03F7013297118250
:101B80001082F801EE0FFF1FEC5CFD4F61E08081D9
:101B90000E943F030F5F1F4FFFEFCF1ADF0A043091
:101BA000110591F60E94A7024BCDE89409C097FB5E
:101BB0003EF490958095709561957F4F8F4F9F4F24
:101BC0009923A9F0F92F96E9BB279395F695879568
:101BD00077956795B795F111F8CFFAF4BB0F11F42B
:101BE00060FF1BC06F5F7F4F8F4F9F4F16C08823D2
:101BF00011F096E911C0772321F09EE8872F762F08
:101C000005C0662371F096E8862F70E060E02AF048
:101C10009A95660F771F881FDAF7880F9695879534
:101C200097F9089597F99F6780E870E060E008955C
:101C30009FEF80EC089500240A94161617061806E4
:101C40000906089500240A941216130614060506C0
:101C50000895092E0394000C11F4882352F0BB0F51
:101C600040F4BF2B11F460FF04C06F5F7F4F8F4FB4
:101C70009F4F089557FD9058440F551F59F05F3FEF
:101C800071F04795880F97FB991F61F09F3F79F09E
:101C900087950895121613061406551FF2CF469520
:101CA000F1DF08C0161617061806991FF1CF8695A2
:101CB0007105610508940895E894BB276627772786
:101CC000CB0197F908955058BB27AA270E947B0E95
:101CD0000C94290E0E941B0E38F00E94220E20F058
:101CE00039F49F3F19F426F40C94180E0EF4E09585
:101CF000E7FB0C94120EE92F0E943A0E58F3BA1724
:101D0000620773078407950720F079F4A6F50C9411
:101D10005C0E0EF4E0950B2EBA2FA02D0B01B9012D
:101D200090010C01CA01A0011124FF27591B99F051
:101D3000593F50F4503E68F11A16F040A22F232F5D
:101D4000342F4427585FF3CF469537952795A795AD
:101D5000F0405395C9F77EF41F16BA0B620B730B54
:101D6000840BBAF09150A1F0FF0FBB1F661F771FC5
:101D7000881FC2F70EC0BA0F621F731F841F48F47A
:101D8000879577956795B795F7959E3F08F0B0CF03
:101D90009395880F08F09927EE0F979587950895EA
:101DA0000E94E40E0C94290E0E94220E58F00E940C
:101DB0001B0E40F029F45F3F29F00C94120E5111D4
:101DC0000C945D0E0C94180E0E943A0E68F3992341
:101DD000B1F3552391F3951B550BBB27AA27621727
:101DE0007307840738F09F5F5F4F220F331F441F34
:101DF000AA1FA9F335D00E2E3AF0E0E832D0915068
:101E00005040E695001CCAF72BD0FE2F29D0660F54
:101E1000771F881FBB1F261737074807AB07B0E897
:101E200009F0BB0B802DBF01FF2793585F4F3AF09D
:101E30009E3F510578F00C94120E0C945D0E5F3F9E
:101E4000E4F3983ED4F3869577956795B795F79523
:101E50009F5FC9F7880F911D9695879597F908950B
:101E6000E1E0660F771F881FBB1F621773078407A7
:101E7000BA0720F0621B730B840BBA0BEE1F88F7B6
:101E8000E09508950E94420E88F09F5798F0B92F70
:101E90009927B751B0F0E1F0660F771F881F991F9F
:101EA0001AF0BA95C9F714C0B13091F00E945C0ED7
:101EB000B1E008950C945C0E672F782F8827B85FE7
:101EC00039F0B93FCCF3869577956795B395D9F7F7
:101ED0003EF490958095709561957F4F8F4F9F4F01
:101EE000089597FB072E16F4009407D077FD09D0CC
:101EF0000E94AC0F07FC05D03EF4909581959F4F52
:101F00000895709561957F4F0895052E97FB1EF4F7
:101F100000940E949C0F57FD07D00E94C00F07FC41
:101F200003D04EF40C949C0F50954095309521951C
:101F30003F4F4F4F5F4F08959095809570956195F5
:101F40007F4F8F4F9F4F0895EE0FFF1F881F8BBF4E
:101F50000790F691E02D1994AA1BBB1B51E107C015
:101F6000AA1FBB1FA617B70710F0A61BB70B881F29
:101F7000991F5A95A9F780959095BC01CD010895B8
:101F8000A1E21A2EAA1BBB1BFD010DC0AA1FBB1F7D
:101F9000EE1FFF1FA217B307E407F50720F0A21BEF
:101FA000B30BE40BF50B661F771F881F991F1A945C
:101FB00069F760957095809590959B01AC01BD0186
:101FC000CF010895DC0101C06D9341505040E0F70E
:061FD0000895F894FFCF14
:101FD600010001000800200040008000000100040C
:101FE600EE3E9C7A9E8EBC6E0C78AE1CEC2A3ACEE7
:101FF600E68CB61E387C7E6C76DAFC60DAF266B663
:10200600BEE0FEE60D000C000B000A00000000001A
:102016003A02A401D10187020202E001F4018040E4
:102026002010080402010000010002000300040061
:0620360005000600070092
:00000001FF
